:020000041000EA
:1000000000B5324B212058609868022188439860DF
:10001000D860186158612E4B002199600221596106
:100020000121F02299502B49196001219960352056
:1000300000F044F80222904214D00621196600F024
:1000400034F8196E01211966002018661A6600F04E
:100050002CF8196E196E196E052000F02FF8012189
:100060000842F9D1002199601B49196000215960AB
:100070001A491B48016001219960EB211966A021F2
:10008000196600F012F800219960164914480160C1
:100090000121996001BC002800D000471248134993
:1000A000086003C880F30888084703B5996A0420EC
:1000B0000142FBD001200142F8D103BD02B5186610
:1000C0001866FFF7F2FF186E186E02BD00000240BE
:1000D000000000180000070000035F00212200005C
:1000E000F4000018222000A00001001008ED00E03C
:1000F00000000000000000000000000074B24E7A12
:1001000000200420F7010010CB010010CD010010E9
:10011000C9010010C9010010C9010010C901001077
:10012000C9010010C9010010C9010010CF01001061
:10013000C9010010C9010010D1010010D301001045
:10014000C1010010C1010010C1010010C101001067
:10015000C1010010C1010010C1010010C101001057
:10016000C1010010C1010010C1010010C101001047
:10017000C1010010C1010010C1010010C101001037
:10018000C1010010C1010010C1010010C101001027
:10019000C1010010C1010010C1010010C101001017
:1001A000C1010010C1010010C1010010C101001007
:1001B000C1010010C1010010C1010010C1010010F7
:1001C000EFF30580103800BE00BE00BE00BE00BECA
:1001D00000BE00BEF2EB8871C0A30010E0A30010C7
:1001E0003802001090A31AE71E481F49086006C88D
:1001F00081F3088810471D480068002801D019487D
:10020000F3E70DA40ECC002902D000F012F8F9E7B4
:100210001749184A002000E001C19142FCD116495B
:100220008847164988471649884700BEFDE701C937
:1002300001C29A42FBD37047E0A30010C000002027
:10024000480C002068AF00100000042000000420CB
:1002500068AF00100010042000100420000000000F
:10026000704700000000000008ED00E0000000D032
:10027000480C0020E01C00203D5600102103001017
:1002800035560010F8B5C0460448054B10B58342FA
:1002900003D0044B002B00D0984710BD480C002021
:1002A000480C00200000000006480749091A8B107E
:1002B000C90FC91810B5491003D0044B002B00D04A
:1002C000984710BD480C0020480C0020000000009A
:1002D00010B5074C2378002B09D1FFF7D5FF054B4C
:1002E000002B02D0044800E000BF0123237010BDA2
:1002F000D00E002000000000B8870010054B10B59C
:10030000002B03D00449054800E000BFFFF7CCFFF5
:1003100010BDC04600000000D40E0020B8870010B9
:1003200010B54E4CA54405F0F7FAFA20C00002F0D3
:100330004DFA4B4805F020FB4A494B4805F09AFB23
:100340004A4805F019FB4A4805F016FB494C4A4952
:10035000200007F0A3FF0321102001F00DFC032172
:10036000112001F009FC00220121102001F01EFCE7
:1003700000220121112001F019FC404805F0FCFA8F
:10038000E1213F48490202F07BFB0221042001F0F9
:10039000F3FB0221052001F0EFFB002301220821DD
:1003A000374802F0B1FB0121354802F0E9FB35483E
:1003B00005F0E2FA6822210001A801F009FA3248AA
:1003C00005F0DAFA06A800F0A5F8304805F0D4FAEE
:1003D000FFA806AA01A9243001F078FB06A800F0C6
:1003E0005BFC002808D12A4805F0C6FA294805F028
:1003F000C3FA06A800F09CF8274805F0BDFAFFA84C
:10040000243001F085FB002820D0244805F0B4FA00
:10041000234805F0B1FA5021224805F02BFB224B6E
:10042000224A2349234805F025FB6421224805F090
:1004300021FB224805F0A0FA2149224805F01AFBC9
:10044000214805F099FA06A800F0DAFE1F4805F0E9
:1004500093FA1F4805F090FADAE7C046E0F3FFFF91
:10046000B887001050960010E8870010FC87001035
:1004700028880010380C0020801A06003C880010E4
:10048000008003406088001080880010A48800105D
:10049000C8880010F488001018890010988900108E
:1004A000C4890010E089001060960010B80B0000AD
:1004B00078960010FC890010148A0010348A00100D
:1004C00030750000648A0010848A00103C89001096
:1004D0007089001010B50478002C09D020210C4A36
:1004E000013093691942FCD114600478002CF7D1D3
:1004F0002021074A93691942FCD10D232021136062
:10050000034A93691942FCD10A23136010BDC04607
:10051000008003400023802210B504000360436084
:100520000021D200083003F031FE200010BDC0468B
:1005300070B5154805F020FA144C2025FA208000EB
:1005400005F0EEF9831C07D00A2812D0A3691D42DA
:10055000FCD1FF2303402360A369DB06EED4102205
:10056000A3691A42FCD1FF202368184005F0F6F970
:10057000E3E7A3691D42FCD10D232360A3691D425B
:10058000FCD10A232360E7E7A08A00100080034023
:10059000F8B5CE46474680B5884602F0C9F9FA223A
:1005A00004000D00002340460021920003F0EEFC01
:1005B00006000F00A4197D41002D02DA0124174D19
:1005C0006442174B9846174B99462A001021434620
:1005D0005B6A9A4209D84046806AA04201D29A4298
:1005E00003D0C0BCB946B046F8BD4B469B69194222
:1005F000EDD110210B4A93691942FCD1FF201368F9
:10060000184005F0ABF902F093F980197941040024
:100610000D1EDADA0124014D6442D6E7FFFFFF7FA9
:100620000040054000800340F0B5DE4657464E4688
:100630004546E0B59B460E001500170095B0082A08
:1006400000DD0827002D18DD04AB984600239A46EC
:10065000330000244646A94698464346A50058590B
:1006600007F096FE202204AB9B185246013401C6C7
:100670005A51BC42F1DB46464D4602F059F9FA2286
:1006800000230090019158460021920003F07EFC67
:10069000009B019C1B184C4100930194002C04DA30
:1006A00001232E4C5B4200930194019B99462C4BF5
:1006B0009B462C4B984610239A462B004D46994654
:1006C0005B465B6A9D420FD85A460099926A8A42FD
:1006D00001D29D4208D00120404215B0F0BCBB467B
:1006E000B246A946A046F0BD434652469B691A420F
:1006F000E6D110211B4A93691942FCD1FF201368EF
:100700001840DCB205F02AF94B46002BD8DD04AACC
:10071000BC46039537000020150026000CAB09E00D
:100720000A780130921B51424A4104351A60043361
:1007300060450FDA8200B9581A688C5CB442EFD178
:10074000296801321A608A42C7D001300433043567
:100750006045EFDB3E00039D6746B1E7FFFFFF7F8B
:10076000004005400080034000B583B013000191B4
:10077000012201A9FFF758FF43425841C0B203B01C
:1007800000BDC046F8B5DE4657464E464546E0B584
:100790009A469046894602F0CBF8FA2204000D00F2
:1007A000002350460021920003F0F0FB06000F00EA
:1007B000A4197D41002D02DA01241D4D644200235D
:1007C0009A46D0450BDD1B4B29009C461A4A536ABA
:1007D00099420BD8906AA04201D2994206D0504665
:1007E000F0BCBB46B246A946A046F8BD6346102001
:1007F0009B691842EBD110210E4A93691942FCD132
:100800001368012294464A46E2445146FF20013AC9
:100810005354184005F0A2F802F08AF88019794183
:1008200004000D1ECDDA0124014D6442C9E7C04623
:10083000FFFFFF7F0080034000400540F0B5DE462B
:1008400057464E464546E0B587B01C0005928B469C
:1008500002F06EF8FA2206000F00200000230021AB
:10086000920003F093FB8019794104000D1E02DA17
:100870000124664D6442002399460093644B029420
:1008800003959A46634F7B6A9D420DD8BA6A0299D6
:100890008A4201D29D4207D0002007B0F0BCBB467F
:1008A000B246A946A046F0BD534610229B691A42A3
:1008B000E9D1574916008B691E401A42FAD1FF222E
:1008C0000B681A4010009046DCB205F047F84A4623
:1008D000514B9B5CA3420ED04346722B5FD04F4BD3
:1008E000009AB1469B5CA3420DD043462B3B5A4233
:1008F0005A410092C7E7561C062AF0D10220404216
:10090000CBE701239946009B01330093052BBAD115
:100910000023A846029C039D009401951D003D4EB6
:100920003B4F736A434544D3B26A00998A4201D26D
:1009300043453ED00026AA46009C019D002300931B
:10094000334B0294039599464546324F7B6AAB423E
:1009500005D3BA6A02998A429ED2AB429CD14B46D9
:1009600010229B691A42F1D11021294A9369194238
:10097000FCD1FF23126813409846180004F0EEFFE4
:1009800043463A2B31D0303B092B00D984E70099FC
:100990008C468A00624452009B180093D6E71F4B96
:1009A000009A9B5C722BACD00023009301339946D4
:1009B00069E71022BB691A42B3D11021144A936926
:1009C0001942FCD1FF23126813409946180004F025
:1009D000C5FF4B462C2B13D0303B092B00D95BE7CE
:1009E000AA00521952009D189BE7002E00D153E730
:1009F0005B4652461A60059B009A01201A604CE73C
:100A0000AA46009C019D012698E7C046FFFFFF7F94
:100A10000080034000400540FC8A00104C97001005
:100A200070B50D002849CEB0009180210600274BFB
:100A3000274A49000EA804F0BDFD264B2821264A6E
:100A4000009304A82B0004F0B5FD04A8FFF742FDB5
:100A5000224B01220393FA233000DB0003A9FFF7A6
:100A6000E3FD002824D16B4638229B181878190022
:100A7000002809D020241A4B01319A691442FCD174
:100A8000186008780028F7D10A2020241549144B53
:100A900001319A691442FCD1186008780028F7D116
:100AA000114B012203933000104B03A9FFF7BCFD4B
:100AB0002B0028210E4A04A804F07CFD04A8FFF7AF
:100AC00009FD4EB070BDC046650600005497001089
:100AD000048B0010C9060000548B0010688B0010B6
:100AE00000800340709700107C8B0010B80B000052
:100AF0006C8B001070B5C0B006000D001623C82125
:100B0000244A0EA804F056FD7F232821224A009390
:100B100004A82B0004F04EFD04A8FFF7DBFC1F4BDC
:100B200001220393FA233000DB0003A9FFF77CFDC9
:100B3000002824D16B4638229B1818781900002809
:100B400009D02024164B01319A691442FCD1186057
:100B500008780028F7D13C2020241249104B01319D
:100B60009A691442FCD1186008780028F7D10E4B1E
:100B70000122039330000D4B03A9FFF755FD2B0015
:100B800028210B4A04A804F015FD04A8FFF7A2FCD5
:100B900040B070BD888B0010548B0010688B001023
:100BA00000800340349700107C8B0010B80B0000CD
:100BB0006C8B001070B504008CB02D48FFF78AFCD8
:100BC000C8232C4D012220009B0004A90495FFF7A7
:100BD0002BFD294E00283DD12848FFF77BFC9623AA
:100BE00001229B0004A920000495FFF71DFD202190
:100BF0005023234A04A804F0DDFC04A8FFF76AFC94
:100C000002A9022220001F4B02954E60FFF70CFD47
:100C1000013028D00A2320211B4A04A804F0CAFC72
:100C200004A8FFF757FCC82301229B0001A920005C
:100C30000195FFF7F9FC1548FFF74CFC96212000C1
:100C40004900FFF7A5FC5021114804F013FF0120D3
:100C50000CB070BDC823012220005B0004A90496DB
:100C6000FFF7E2FCB8E70B4804F086FE0020EFE750
:100C7000F48B0010008C0010088C0010148C0010F5
:100C8000248C0010DC0500005C8C00106C8C0010C3
:100C90007C8C0010388C0010F0B5C64600B50600FC
:100CA000A6B00F2000F096FFD0238022E1211B0682
:100CB00012025A6249025A613E4804F0DBFE642186
:100CC0003000FFF765FC3C4B0A2598463B4F01E09E
:100CD000002C1DD04046FFF7FDFB962301225B0050
:100CE00006A930000697FFF79FFC013D0400C820CD
:100CF00001F06CFD002DEBD1002C09D0E121304832
:100D0000490204F0B7FE002026B080BCB846F0BD12
:100D10002C4804F031FE2C48FFF7DCFBFA230122BB
:100D20005B0006A930000697FFF77EFC2748FFF717
:100D3000D1FBFA2301225B0006A930000697FFF7DA
:100D400073FC234C234A2100234804F093FE234BD9
:100D50008021234A009306A8230004F02BFC06A858
:100D6000FFF7B8FB03A90A001E4B31CB31C20322A7
:100D70003000184BFFF758FC002808D0012817D086
:100D8000022813D01849194804F074FEBBE718482C
:100D900004F0F2FD1748FFF79DFBC8213000490021
:100DA000FFF7F6FB3000FFF705FFADE71249EAE772
:100DB0001249E8E7BC8C0010DC8C0010008C00109D
:100DC000E08C0010308D0010408D0010488D001018
:100DD000EC9D0010204E0000548D0010D89D001096
:100DE000848D0010FC9D0010A48C0010988D0010C4
:100DF000B88D0010D08D0010B48C0010AC8C001099
:100E0000F0B5CE46474680B5434C0700A5441400D4
:100E10008846424A994600940B0008A8802104F0B5
:100E2000C9FB08A8FFF756FB05A90B003C4864C89E
:100E300064C3032238003B4BFFF7F6FB0921013066
:100E4000C140C9074BD4B09807F0A2FAB09B8021EB
:100E500002934346344A0190009389004B4628A8E8
:100E600004F0A8FB80210300304A08A804F0A2FB8C
:100E700008A8FFF72FFB2E4B01220493FA2338001A
:100E8000DB0004A9FFF7D0FB00281AD16B46A02293
:100E90009B181E78002E0AD020241D00254B0135FA
:100EA0009A691442FCD11E602E78002EF7D1224B95
:100EB000012204933800214B04A9FFF7B5FB002859
:100EC00013D01F4804F058FD1E48FFF703FB002015
:100ED000A9239B009D44C0BCB946B046F0BD22008A
:100EE0004146194804F0C6FDF1E74146174804F0B1
:100EF000C1FDFA213800C900FFF74AFB1148FFF78E
:100F0000E9FA134B01220493FA2338009B0004A949
:100F1000FFF78AFB0120DBE75CFDFFFFDC8D0010A3
:100F2000089E0010881300001C8E0010848E001094
:100F3000688B0010008003407C8B0010B80B000011
:100F4000C48E0010B48E0010F88D0010948E001026
:100F5000008C0010F0B5D6464F464646C0B5170087
:100F60003D4A3E4C94462200E1461E003C4B8846DA
:100F70001D68FA21654365446A4391444A465443D7
:100F800064441C602000890002F0DCF88A46FA21E3
:100F90002800890002F0D6F8080003F062F8314911
:100FA00003F017F8FC21890503F00DF8011C03F08C
:100FB0000DF8002103F00AF84346FA211860890071
:100FC000484602F0BFF8080003F04BF8254903F04B
:100FD00000F8FC21890502F0F6FF011C02F0F6FF83
:100FE000002102F0F3FF3860504603F03AF81D4943
:100FF00002F0EFFFFC21890502F0E5FF011C02F081
:10100000E5FF194902F0E2FF53463060042B1ED879
:101010002000642102F096F8080003F022F813493A
:1010200002F0D7FF124902F0CEFF4346041C011C18
:10103000186802F0CBFF434618603868211C02F0A4
:10104000C5FF38603068211C02F0C0FF3060E0BC92
:10105000BA46B146A846F0BD393000006D4EC641D3
:10106000700B002000007A44C3F51C4100002041B1
:101070000000A04070B5081C151C1C1C02F0BDFF30
:10108000061C291C281C02F0B8FF011C301C02F0B1
:101090009DFF211C051C201C02F0AFFF011C281C19
:1010A00002F094FF03F004F802F07AFB02F06CFB0C
:1010B00070BDC046F0B54F46D6464646C0B5D0B026
:1010C0001D1C58AB10CB81461B780F1C9A46161C72
:1010D00001F02EFC002954D0FA220023920002F0E5
:1010E0006FF880464B4642465B68D31A394A9342B2
:1010F00053D94B464246381C5A6002F0D9FF0C9037
:101100000D91301C02F0D4FF0E900F91281C02F0BC
:10111000CFFF0600201C0F0002F0CAFF5346040058
:101120000D00002B3BD110A98A462B492B4B0A916D
:101130000E980F99049005910C980D9902900391C7
:1011400041460091802150460894099506960797DC
:10115000234A490004F02EFA224B22000093224831
:101160002B0004F087FC5246484600921F4B204952
:10117000204AFFF745FE50B0E0BCBA46B146A8464B
:10118000F0BDFA21890001F0DDFF80464B46424662
:101190005B68D31A0F4A9342ABD80120EBE710A942
:1011A0008A4615490D4B0A910E980F9904900591A6
:1011B0000C980D9902900391414600918021504670
:1011C0000894099506960797054A490004F0F2F934
:1011D0000A4BC2E7871300009C8F00105096001046
:1011E000208F0010F48E0010008F00106096001009
:1011F00078960010B80B0000948F0010E48E001059
:10120000F0B54E464546DE4657460023E0B505009C
:10121000CA4C9946CA4BA544039301F089FB0029A7
:1012200046D0FA220023920001F0CAFF4B46040088
:10123000E31A632B45D801235B420893002328005F
:10124000099309AA643308A9FFF7F8FA831C75D03B
:101250000128E2D12E008023099A0836DB009A4249
:1012600000DD94E031002800B64BFFF78BFA041E36
:10127000D3D0042817DD05223000B34907F0A0F9C8
:10128000071E10D122002021300007F0AFF8804661
:10129000002808D0012343449A4633199A4502D2C4
:1012A00043782F2B75D028000899FFF723FCB4E76B
:1012B000FA21890001F046FF4B460400E31A632B34
:1012C000B9D9280050AB28AA17A9FFF743FE179BEE
:1012D00028009846289B41469946509B4A469A4684
:1012E000FFF7C8FE9949061C02F0B6FE071E34D06F
:1012F000301C02F0DDFE0B0095490200009195487C
:1013000004F0B8FB802701230096D0264A464146C8
:1013100036063F02019328005346FFF7CBFEC82054
:10132000B76101F053FA6420776101F04FFAC820E9
:10133000B76101F04BFA7761A1467CE7039804F0AE
:101340001BFB2800FFF736FC002800D065E7824829
:1013500004F012FB2800FFF7EBF88049301C02F084
:101360007BFE0028E8D0301C02F0A2FE0B007C4976
:1013700002000091774804F07DFB4A4653464146FF
:10138000280001970096FFF795FEA14653E71A0043
:1013900068E753469A1B20215046A21A07F026F808
:1013A000002842D05346C31A9B46062B38D9072241
:1013B00050466C4907F004F9002847D15B46072BDB
:1013C00038D0434610221B7A504693432F3B5A4253
:1013D000534165490622DFB207F0F2F84342584113
:1013E000C3B205935B460B2B2ED90C2250465F49A6
:1013F00007F0E6F843424341DBB2089A0492002F1B
:1014000033D0D0248026FA2024063602A66140007C
:1014100001F0DCF9280004996661FFF701FBFCE6A6
:10142000062B08D0012B00D03DE728000899FFF7D4
:10143000F7FAF2E60127062250464B4907F0C0F8BA
:1014400043425841C3B205930023D6E706225046D3
:10145000454907F0B5F843425841C3B205935B468E
:101460000B2BC2D8089B04930023059A002A32D183
:10147000002B00D117E750AC22003D4B43CB43C2B9
:1014800043CB43C243CB43C203CB03C2198828A832
:1014900011809B78282193702E23364A0093049B59
:1014A00004F088F828A8FFF715F8334B01221793AA
:1014B000FA2328009B0017A9FFF7B6F8002800D1EF
:1014C00033E128212D4A049B28A804F073F828A8AA
:1014D000FFF700F8A1E622002F21300006F086FF7A
:1014E00050AE0400C02200213000002C00D112E1D7
:1014F000A04500D80FE102F049FE43461A1BBF2A5F
:1015000000D9BF222100300002F046FE30003F210A
:1015100006F0A6FF061E74D0441C052220001849C0
:1015200007F014F8002800D011E1B41D2378002B37
:1015300000D1DBE021002200661C2FE0FCFDFFFF54
:10154000E88F0010B80B000064900010000070419C
:10155000C88F0010A48F0010209000100000A04041
:10156000D88F00106C900010749000107C900010C8
:1015700000910010548B0010688B00106C8B0010D1
:101580008C9000102B2B00D10B3B300001320B70E4
:10159000137801360131002B00D1A8E0252BF1D1C1
:1015A000577838003038092800D8B0E03800413882
:1015B000052800D8B4E038006138052800D9A4E037
:1015C000572040428446BC44977838003038092878
:1015D00000D89EE038004138052800D89EE0380049
:1015E0006138052803D8573F6046013002D13000EA
:1015F0000132CCE763461B013B433000DBB20332D0
:10160000C5E7674B17AE179304AA4D23944630786D
:1016100063449B46002838D0D0278026F0233F061D
:101620009A4636020BE0B420400001F0CFF80123C7
:101630009C46E3445B46013B1878002825D02028CF
:101640004FD006F09BFE30382A28F0D8554B80004A
:10165000C458002CEBD0200006F09AFE0028E2D0FF
:101660008046A044BE61207801342E38431E984144
:10167000534640421840783001F0A8F87E61444556
:10168000D1D0782001F0A2F8ECE7474B07AC1A88DC
:10169000A02122809B78454AA37028A8022303F04A
:1016A00089FF64233021424A00930BA8049B03F076
:1016B00081FF0BA8FEF70EFF3E4B01220A93FA238F
:1016C0002800DB000AA9FEF7AFFF002849D030212F
:1016D000394A049B0BA803F06DFF0BA8FEF7FAFE36
:1016E0009BE5D220800001F071F8A0E720000027E0
:1016F00007702378BB4284D017AE4022210030000F
:1017000006F00CFE4023F7547EE701204042844659
:101710005AE7070068E702F039FDF7E6373F63E76D
:10172000372040428446BC444EE720002021234A13
:101730000478002C05D0013093691942FCD1146063
:10174000F6E728001E491F4AFFF70EF8B9E6042203
:1017500020001D4906F0FAFE002800D0E6E6741DC0
:10176000E4E62021154A28A80678002E05D001308D
:1017700093691942FCD11660F6E7200020210F4A38
:101780000478002C05D0013093691942FCD1146013
:10179000F6E728000A490D4AFEF7E6FF97E7C0463C
:1017A000534F530088960010309100109C90001009
:1017B000548B0010688B00106C8B0010008003406D
:1017C0007C8B0010DC05000094900010B80B00002A
:1017D0000023016002718360C36003617047C046EB
:1017E00070B584B075236A460125D3730F22017941
:1017F0000400743B00686A44009506F077FD0028F9
:1018000013DB0E262179206800246E440123320068
:10181000009406F077FD002807DB3378683BDBB2E5
:101820009D426441E0B204B070BD0020FBE7C046B9
:1018300030B585B06B236A46002593810179040099
:10184000693B006803AA009506F050FD002819DBEB
:10185000642000F0BBFF1C236A4693812179206835
:101860001A3B009503AA06F041FD002814DB200076
:10187000FFF7B6FF041E0AD00A4804F07DF82000E6
:1018800005B030BD084804F077F80024F7E70748B2
:1018900004F072F80024F2E7054804F06DF8002423
:1018A000EDE7C046E092001040920010A8920010B0
:1018B00070920010F0B5C64600B588B017001E0043
:1018C0006A463B23D3730F223A3B040088466A449E
:1018D00001790068009306F009FD002825DB00234C
:1018E00004AD217920682A0000930E3306F00AFD2A
:1018F00000281ADB424601202B885BBA13806B88D4
:101900000E9A5BBA3B80AB885BBA33802B895BBA9B
:1019100013806B890F9A5BBA1380AB89109A5BBAFC
:10192000138008B080BCB846F0BD0020F9E7C0467F
:10193000F0B5DE4657464E4645468A46E0B58146F6
:101940008BB05C4804F096F85346002B00DCA8E00E
:1019500000239B4602AB00259C46162607AB0024BD
:1019600098460595049508AF664402AA94461E233E
:101970006344029309AB01931A236344009332003A
:101980003B0041464846FFF795FF002836D04346C6
:101990000020185E02F06AFBE221890502F02DFBAF
:1019A000454902F02AFB011C049802F00FFB049049
:1019B0000023F05E02F05AFBE221890502F01DFBD4
:1019C0003D4902F01AFB011C059802F0FFFA059050
:1019D0000023F85E02F04AFBE221890502F00DFBCC
:1019E000354902F00AFB344902F0EDFA011C281CCB
:1019F00002F0ECFA01239C46051CE3440A20013462
:101A000000F0E4FEA245B0D1584601F075FE060094
:101A10000F00504601F070FE284A294B01F0FDFDF1
:101A200032003B0001F052FE002835D1584602F04A
:101A30001DFB041C011C049802F0CBFA4B46071C4A
:101A40009860211C059802F0C4FA4B46211CD8600E
:101A5000061C281C02F0BDFA4B4680461861381C53
:101A600002F026FB040040460D0002F021FB02902C
:101A70000391301C02F01CFB124F009001912200D8
:101A80002B00380003F0F6FF01200BB0F0BCBB4682
:101A9000B246A946A046F0BD0B4803F06DFF0020FA
:101AA000F3E700250023002600279B4605950495B3
:101AB000AFE7C04608930010C3F51C419A99999965
:101AC0009999E93F809300104093001030B542602F
:101AD000FB22002300250024D200016083500A4A23
:101AE0008354821854609560FD22D20082181460DD
:101AF0005560FE22D200821814605560FF22D20089
:101B00008354024A835030BDDC070000FC0700000C
:101B100070B50400124803F02FFF2068FFF788FE1D
:101B2000051E18D00F4803F027FF64212068FFF737
:101B3000FFFE002808D0FF230122DB000A48E25400
:101B400003F01AFF280070BD084803F015FF0522B6
:101B5000074BE250EFE7074803F00EFFF2E7C046FD
:101B6000CC93001030940010AC9400106C940010D2
:101B7000FC070000F0930010094A83009A1810B582
:101B800014684022544080322240064CC000A446D3
:101B900063441A60044B9C466044416010BDC046DB
:101BA00004C0014004D0014000400140074B8000C8
:101BB000C3181B68C90092000A435A400C23134003
:101BC000034A9446604403607047C04604C0014025
:101BD00004D001400123D022834012069362936116
:101BE000094A83009A1811684022514080320A4005
:101BF0000649C0008C4663441A60054B9C46052389
:101C0000604443607047C04604C0014004D00140B6
:101C1000004001408023DB051868000F7047C04674
:101C20000FB400B5084883B003F0A6FE049B002B58
:101C300007D005A91800019103F0E2FC034803F066
:101C40009BFE012003F0F4FCD8940010E8940010EF
:101C500070B5EFF3108C72B60D4D2B68002BFCD0D5
:101C6000BFF35F8F0724CB08C618C05C01230C406C
:101C7000A3401C000440034207D118433070BFF357
:101C80005F8F2C608CF3108870BD1000FFF7C8FFC9
:101C90002C0100D0F8B54746CE46884680B5EFF314
:101CA000108C72B61C4D2C68002CFCD0BFF35F8FDB
:101CB0009A4222D807210126894602E00132934246
:101CC00018D34D4637001540AF40D4080119045DC4
:101CD0002742F3D110003C430C70BFF35F8F00220A
:101CE0000D4B1A608CF3108800280EDBC0BCB9467F
:101CF000B046F8BD01204042EFE7BFF35F8F0023FD
:101D00002B608CF31088012040424346002BEDD01D
:101D10000898FFF785FFC0462C0100D0044A1078D0
:101D2000431CDBB2172B00D9102313707047C04639
:101D3000740B002010B5064B064C82B001000093D6
:101D400018221F232000FFF7A5FF02B010BDC046D8
:101D5000EC940010201700200021044B044ABFF32C
:101D60005F8F02C39342FAD17047C046000100D092
:101D7000800100D0054B064A1360064A1360536089
:101D80009360D3601361536193617047808080805A
:101D900000E400E004E400E01F2318401E3B834001
:101DA000002905D0C021044A4900535013607047F0
:101DB000802201498B50FAE700E100E001228240D5
:101DC000034B1B6813405A1E9341D8B27047C0465C
:101DD00000E100E001238340014A13607047C046E0
:101DE00000E200E0064B10309B688000C358054AB3
:101DF00000209B1A2F229A424041C0B27047C04631
:101E000000ED00E0780B002070B50D00EFF31086B8
:101E100072B60F4A1368002BFCD0BFF35F8F0D4BD7
:101E200010309B6884001B590B4A934203D09D429B
:101E300001D001F06BF8074B9B681D51BFF35F8F1A
:101E4000BFF35F8F0022024B1A6086F3108870BDCB
:101E5000240100D000ED00E0C1010010F0B55746AC
:101E60004E46DE464546E0B585B0060000911700B7
:101E7000EFF3108B72B66A4A1368002BFCD0BFF3E5
:101E80005F8F0025674B5D579A46002D00DAA9E069
:101E90006B00654C01935B199B009846A146C144B9
:101EA0004B4652469B7910361370604BB6009B68C8
:101EB00099590B1B2F2B33D95D4B994200D0ACE0C5
:101EC000019B42469C465B4B6544AD0063535A4BB5
:101ED0000232A218043B9B1A1B05584A5B0D651978
:101EE00013436B80564B0121AB80FF23AB71009BEA
:101EF000EF71AB604B460B4319004C4B9B689951FB
:101F0000BFF35F8FBFF35F8F0022454B1A608BF3E7
:101F1000108805B0F0BCBB46B246A946A046F0BD4D
:101F200001200A008243D3798C46BB4231D8454612
:101F3000130044491B1B5B415943090D3D4B63533F
:101F40003D4B02356519043B5B1B1B053B4D5B0D8F
:101F50002B43AA464D466B800425AC465546E044CB
:101F6000131F44441B1B1B055B0D1D434B469971FE
:101F700000999D8099604946DF71334B014313609E
:101F8000BBE75800C01880002018C179B9422FD98A
:101F900002000623D356002BF3DA02932B4B614643
:101FA0000393131D9A4604235B429C46E14450462A
:101FB0004B461B1A1B055B0D9C46204B95719846A2
:101FC0006346404603439380019B5A199200039B4A
:101FD000A418A380029B1C4AA371009B2260E77196
:101FE000A3608AE700F092FF002553465D574FE754
:101FF000908802934005131D9A46031561469C463E
:102000004046D444634604302018181AE0230005E3
:10201000400D1B0218430390C5E700F077FF4FE720
:10202000240100D0D91C0020780B002000ED00E036
:10203000C101001000A1FFFFA80B002000E0FFFF7E
:1020400001BDFFFFAAAA00000148804701BD0000B2
:10205000F0B5C646012600B50643EFF30584EFF35D
:10206000108C72B61C4A1368002BFCD0BFF35F8F34
:102070001A4FA400BB681A4D1B5902009846194913
:102080000023521B52415143090D2A0049B2B04569
:1020900015D0062414578C4215D001330C32042B72
:1020A000F7D1114B1A7819708271BFF35F8F00223C
:1020B000094B1A608CF3108880BCB846F0BDBB6831
:1020C0000A4A1A51EDE75A00D3189B00ED18FF2376
:1020D000AB71074BAB80E4E7240100D000ED00E0DA
:1020E000780B0020AAAA0000D91C0020C101001012
:1020F00001BDFFFF10B5084B084C82B001000093F2
:10210000002205232000FFF7C5FD002801DB1F2367
:10211000181A02B010BDC04608950010DD1C002042
:10212000024B9C46614489000160704740000034C6
:1021300070B5114C114DAC421CD2FF260BE0FFF7DD
:10214000EDFD01002000FFF7EBFFA680BFF35F8FDE
:102150000834AC420ED22368002BF0D1FFF7DEFD2D
:1021600001002000FFF7DCFF2671BFF35F8F08340A
:10217000AC42F0D370BDC046400C0020480C00209B
:1021800010B50400FFF7CAFD01002000FFF7C8FFEB
:10219000FF232371BFF35F8F10BDC04610B504004D
:1021A0000120FFF7C7FD034BC3189B002360BFF35B
:1021B0005F8F10BD40000034034B9C466144890092
:1021C0000160BFF35F8F7047400000340A4B19680D
:1021D000EFF3108072B60A68002AFCD0BFF35F8F5D
:1021E0001B68BFF35F8F00221A6080F3108840BF26
:1021F000002000217047C046B41C0020F0B5DE4628
:1022000057464E464546E0B587B0EFF305830322B7
:1022100001251A40954091008B46B24B03925C58C1
:10222000B14B02951D60B14B0493029BB0484363D0
:102230000823E55E002D38DAA3881BB2002B00DBF3
:10224000AEE0A379002B00D0EFE00823E55E002D7F
:1022500021DB6B005B196269DB00D3189E68DD68C7
:10226000731C01D16B1C0ED0A14801005944826A35
:102270000B69B71A9B1A9F4215D30123026A039870
:1022800083401A420FD09A4800F04AFB8D4202DC8C
:10229000CBD18642C9D940BF07B0F0BCBB46B246DD
:1022A000A946A046F0BD0E61EDE762696B0090465D
:1022B0005B19DB00984443469E68DF6800F030FB02
:1022C0008F42B9DC00D1FFE0002F00DAE4E04246A3
:1022D000434652691B699146049A934200D1D5E066
:1022E00042460821605E52880004494610439847E0
:1022F000009001910099019A0B001000134300D146
:10230000CAE013000A00B61A9F41002806DB78488D
:1023100000F006FB009E019F36184F4143469E6029
:10232000DF6000229A5E002A00DA85E753009918E0
:102330006069C90041189A468B68C9689946B942D4
:1023400000DD79E702D1B34200D975E708239C4646
:10235000A444059565462281A44653462C0006E018
:1023600053009918C90041188D68C968A9469B187F
:10237000DB00C318B94206DC00D1AFE01C0000232B
:10238000E25E002AECDA230064469C4643461A804B
:102390006346059D1D80A3881BB2002B00DA50E721
:1023A0002269EFF3108172B61368002BFCD0BFF3E3
:1023B0005F8F0123A7885B42A3803FB22369BFF3ED
:1023C0005F8F00221A6081F31088002F00DA38E74F
:1023D000230008332200984666697B00DB19DB0086
:1023E000F318996840468C460824115F9A46DD68C8
:1023F000002907DA0EE0AB4244D00023E15E200062
:10240000002906DB4C006418E4003419E368AB4291
:10241000F1DD5346078000201F5E1980002FDCDAB3
:102420001400A379002B00D10FE70023A37127002C
:102430000823E15E08374B1C00D12CE70D00A046B5
:10244000666902E007004B1C1AD04B005B18DB00EA
:10245000F0180A008C46F15E43881BB2002BF1DABB
:1024600001235B42DC178360C460AA4205D0434667
:1024700039801B89038043461A8165464B1CE4D191
:102480004446E4E6A3686345B7D9C2E74B464846ED
:102490001B69984700281BD143461B88226923816A
:1024A000EFF3108372B611680029FCD0BFF35F8F81
:1024B000414662880A8022696580BFF35F8F0021F0
:1024C000116083F31088B7E6864200D8FCE6B3E6D5
:1024D0004B461A685B68009201930BE7B14500D840
:1024E0004CE750E7981B00203C700540FD21001090
:1024F0000040054070B51D4C2369002B04D00A2113
:102500001B48FFF70DFE70BD1A4D0321280000F097
:10251000FDF9E560FFF702FC174B62699C46032357
:102520002370D0231B061B6860446370134B80002C
:10253000A36001235B42A38010336380104B2061B2
:10254000138001339BB218320F2BF9D10D4B0320AE
:10255000DC600824074B0C491C62FFF755FC012185
:102560000320FFF719FC094B1C60C8E7C00B0020D3
:10257000B41C00200040054040000034FFFF100064
:10258000FFFF0000981B0020FD210010386005406F
:1025900000487047C00B002070B501000469EFF3DC
:1025A000108C72B620680028FCD0BFF35F8F022029
:1025B0000D5E4C6968004019C00024180869002DA0
:1025C00036DB26884E80BFF35F8F002606608CF3D3
:1025D0001088E36063880498013320615B040598E8
:1025E0005B0CA26060611A1C002B1FD093B2280400
:1025F000628018430A69EFF3108C72B61368002BDF
:10260000FCD0BFF35F8F8B8823808D800B69BFF375
:102610005F8F00221A608CF310880B7801329A4089
:10262000CB6808498C4663441A6070BD0122DDE71F
:10263000BFF35F8F002303608CF3108801204042BA
:10264000F3E7C0463C20000070B582B01D0008AB27
:102650001B7806001400002B07D100F069F9220056
:102660002B00121A8B41002B0ADB079B22000193DF
:10267000069B300000932B00FFF78EFF02B070BD69
:102680000020FBE710B543890A1493421ADD53007A
:102690009B184269DB00D3180469EFF3108C72B603
:1026A0002268002AFCD0BFF35F8F5A88090494B2D5
:1026B000090C8A4208D00369BFF35F8F00221A60B9
:1026C0008CF31088002010BD8022120214435C801D
:1026D000012302698371BFF35F8F002111608CF3C6
:1026E0001088044902788C469340C26801206244F5
:1026F0001360E8E73C20000040787047F0B5060022
:102700000F0006246442E517C646A4197D4100B5B2
:1027100082B08D4214D811D000F00AF922002B00AB
:10272000121A8B41002B15DC002B44D030003900ED
:1027300000F03CF902B080BCB846F0BD8442EBD951
:102740000024002500F0F4F822002B00121A8B411F
:10275000002BE9DD00F0ECF822002B00121A8B416F
:10276000002B0ADB00230193144B22000093144832
:102770002B00FFF711FF0130D8D0A046290000241C
:10278000104A1148536A994204D8956A4545CDD2FA
:102790009942CBD10568EFF3108C72B62B68002BF1
:1027A000FCD0BFF35F8F0368BFF35F8F1C608CF3B7
:1027B000108820BFE6E7002AB8D0CBE7CD21001073
:1027C000C00B002000400540B41C002070B506007E
:1027D00000F0AEF8FA2204000D00002330000021C2
:1027E000920001F0D3FB00196941002902DA0120AF
:1027F00002494042FFF782FF70BDC046FFFFFF7FE6
:10280000F0B557464E46DE464546E0B506000F0099
:1028100085B0EFF3058399468B46002B12D03849DB
:1028200000204B6ABB4206D38A6ADB1B591E8B41D0
:10283000B2424041184305B0F0BCBB46B246A9467F
:10284000A046F0BD2F4B9A46DB68984653461B784E
:102850004046039300F064F84246039B04000433AF
:102860009B009B580D001B1A39003000001BA9412A
:10287000894510DC0DD020BF214A0020536A5B45FA
:10288000D9D3926ADB1B591E8B41B2424041184397
:10289000D1E78342EFD900F04BF832003B00121A27
:1028A0008B41002B1ADB00230193174B320000935E
:1028B00050463B00FFF770FE011E0FDD104B5A6AB9
:1028C0005A451BD39B6AB34216D35046FFF7DAFE34
:1028D0000B4A0020536A5B45ADD3D2E7084A00207B
:1028E000536A5B45A7D30020926ADB1BB24240418A
:1028F0005A1E934118439EE75A45E6D120BFE4E7AC
:1029000000400540C00B0020CD21001010B5024A48
:102910000248FFF79DF910BD2495001024170020F0
:102920000300416A0A00986A596A8A42FAD17047DC
:10293000034B596A0A00986A596A9142FAD1704762
:102940000040054070B504000D00174A536A190095
:10295000966A536A8B42FAD13000190024184D410F
:10296000AB4216D813D0104A2B00526A954203D9B5
:102970000D494A6A9A42FCD39A4207D10A4A02E0B8
:10298000516A994202D1916AA142F9D370BDA6421F
:10299000E9D9054B5B6A1C005A1CEFD001230124C6
:1029A0006442E5175B42E3E700400540064A536A8C
:1029B0009942FCD807D1044B02E05A6A914202D1F5
:1029C0009A6A9042F9D8704700400540F8B5040073
:1029D00006200D0000F092F92900C00000F0B2FBC3
:1029E0000130C30921D01F4A934233D900231E4A24
:1029F0001E4F6262A362256BEB071DD51C4B1D4A5F
:102A0000E3181A60666AA36A0620B601F61800F099
:102A100075F9194900F096FBB6020100300000F08C
:102A200091FB0021FFF78EFF06E040270122626242
:102A3000A362256BEB07E1D40022E36A0F4B06206B
:102A4000E3181A60256300F059F93900800000F09E
:102A500079FBF8BD4006800E9F011A003F18030065
:102A6000E5E7C046FEFF0000FFFF0000C0FF3F009B
:102A700030300000010300004E0E00002C1000005A
:102A800070B5040006200D0000F038F900282CD0A5
:102A9000164B1749E3185A1E93418022120494469C
:102AA0005B429B0D134A9B0563441360124A1360FB
:102AB00018000A689043FBD10C4B104AE3185942A6
:102AC0004B4180215B004900995220002900FFF70B
:102AD0007DFF7023E26A5A400E331340084AA21861
:102AE0001360084B23630323A36470BD0080FCBF05
:102AF00008C0004000E0004000F00040C01C002082
:102B00002C100000010300000539013AF8B5D2008D
:102B10004C0105001443002B06D0013B5A4253419F
:102B20009B00234302241C432E6BF30708D46E231F
:102B3000EA6A624013400E4AAA1813602E63F8BD79
:102B40000C4B0D4AEB181A606F6AAB6A0620BF0186
:102B5000FF1800F0D3F8094900F0F4FABF020100B1
:102B6000380000F0EFFA0021FFF7ECFEDFE7C04687
:102B70002C10000030300000010300004E0E000059
:102B8000F8B5066B04000D01F30708D4E36A5D4055
:102B900010231D400D4BE3181D602663F8BD0C4B40
:102BA0000C4AC3181A60476A836ABF010620FF18DF
:102BB00000F0A4F8084900F0C5FABF02010038008F
:102BC00000F0C0FA0021FFF7BDFEDFE72C10000087
:102BD00030300000010300004E0E0000F0B5DE466C
:102BE00057464646C0B51F00334B44009C46241848
:102BF000A400644416006368089A8B46934200D28E
:102C00006260031FDBB29846012B2FD9C0238022BC
:102C10009B01E31812011A60284B850059599A4606
:102C200000291AD17301E026226853401E408023F8
:102C300042465B01E3181E60012A2FD980238022BF
:102C40009B01E31812011A60089B636053465F51B1
:102C5000E0BCBB46B246A846F0BD586900F072FA27
:102C6000013043001B18033BFDD2DBE75B46012B21
:102C7000CCD1C02303229B01E3181A60023AA36857
:102C80001A42FCD07301E0262268850053401E40A2
:102C900080230A4A5B019246E3181E605A46216867
:102CA000514003220A401A6001235A469340A26809
:102CB0001342FCD0C2E7C046008000402817002025
:102CC000F0B583B005000E0018000899170000F059
:102CD00039FA089A0300140231003A0028000094DF
:102CE000FFF77CFF03B0F0BD10B5802482B0640014
:102CF0000094FFF773FF02B010BDC046014B800087
:102D0000C058704728170020F8B5040021481E005D
:102D100017000D0000F016FA0100380000F012FA5A
:102D2000069B36041B031E432368002B20DB1A4B33
:102D30001A49E3185A1E93418022920194465B423D
:102D40001B0B174A1B0363441360164A13601F00D2
:102D50000A689743FBD1144B2560E2182123A06039
:102D600013602368002BFCDA0823E6601360F8BDCB
:102D70003F2322681340AB42D9D1A3681B051B0D2A
:102D80008342D4D1EE22E368D2021340B342CED1C3
:102D9000EDE7C046001BB7000040FDBF08C0004083
:102DA00000E0004000F000400430000010B5802436
:102DB0001C4BE4051C6000281AD001231A4C184350
:102DC0001A4BDC611A4C44401C62596298628021A3
:102DD000144BC9051960174817490860E021C90458
:102DE0001960002A07D18022144B12061A6010BD08
:102DF0000E4BD861EBE753019B1A9B009A18802376
:102E000012015B049A4209D213000D490B60074B73
:102E10005A608022094BD2051A60E8E7094B1A0074
:102E2000F3E7C04600B00540D3C007B000800540BE
:102E30002D3FF84FFCFF01000820014000A0054095
:102E4000881B0020FFFFFF008023024A9B000B43EA
:102E5000D362704700800540002310B50100988AB6
:102E60001B8B984710BDC046162310B5010018886B
:102E700002331B88984710BDF8B54746CE4680B54B
:102E80000F1E18D014239946043304000025012690
:102E900098464B461888434621681B88984701C4CA
:102EA000431E984101350640AF42F2D13000C0BC0C
:102EB000B946B046F8BD0126F8E7C046002370B514
:102EC00004000D00988A05491B8B984703000020D9
:102ED000002C01DB0130A04029009847554200003A
:102EE000AA23064A1B0113608D235B00D3600449AB
:102EF000044B19605368002BFCDA70470040024015
:102F000000B0FA00006002407047C04610B50148AA
:102F1000FEF786FE4895001070B5074D074EB54286
:102F200009D20024013E761BB60808CD984723003D
:102F30000134B342F9D170BD70870010AC87001026
:102F4000054B064A06491A60064A074B1A601000EC
:102F50000B689843FBD1704700E00040BFCDFBFEFB
:102F600008C00040FE7F3C0000F00040044BDB6CDA
:102F7000002B03D18022034BD2021A607047C04657
:102F8000000011504C201150044A054B1A60054AAC
:102F90001368DB018033FBD17047C046FFFFFF01A0
:102FA00000F0004008C000404022034B9A675A6777
:102FB0001A67DA667047C04600F0014010B5FEF7A8
:102FC000CBFE10BD0C4B0D4970B55D1AAC10220044
:102FD0000B4E302C00D930223000920001F0DCF88A
:102FE000BC2D05D8074A7519013404C5302CFBD116
:102FF000054B9E6070BDC046C0010010000100106E
:1030000000000020C101001000ED00E0002310B519
:10301000294C82B0A367FFF763FF0122274B1A6098
:10302000636C012BFCD10322254B1A60224A936B5F
:10303000012BFCD1013300930121224A22480433A1
:10304000FFF762FE052301210093204A2048FFF785
:103050005BFE0022022104201E4BFFF745FE0022EA
:10306000012105201C4BFFF73FFE00220021072015
:103070001A4BFFF739FE002200210820174BFFF7FB
:1030800033FE8023DB000093002200210920134B34
:10309000FFF716FE0022104B00210620FFF724FE4A
:1030A0000420FFF72BFE0E4900F04CF80100002031
:1030B000FFF7CAFE02B010BD008000403CB00040E7
:1030C00030B00040002F685900800240008C8647D5
:1030D00000C00240001BB70040597307006CDC02BF
:1030E00040420F0001480421014B1847E00B00202B
:1030F000792E0010124A936F9B0815D29066D16604
:10310000002905D0FFE7FFE7FFE7516F106F704719
:1031100004B580210906C2175140002800D0C843D9
:1031200005F0EEFA002104BDF0B5146E556E576F30
:10313000166FFFF7E3FF1466556657671667F0BD15
:10314000000000D0114A936F9B0813D2106651669D
:10315000002905D0FFE7FFE7FFE7516F106F7047C9
:1031600004B5002801D00020C04305F0C9FA0021B1
:1031700004BDC046F0B5146E556E576F166FFFF75D
:10318000E5FF1466556657671667F0BD000000D06E
:1031900094464A4A926F9208624601D228E0C0469D
:1031A000F0B5464E346E756E776F366F00F020F8CE
:1031B0009446424A14665566576716676246F0BDE4
:1031C00094463E4A926F9208624601D254E0C0464D
:1031D000F0B53A4E346E756E776F366F00F04CF87E
:1031E0009446364A14665566576716676246F0BDC0
:1031F000002B24DB11D000293EDA00B5C943404240
:1032000000D1013100F038F8C943404200D101310A
:10321000DB43524200D1013300BD002AEBD100282C
:1032200001D1002905D00020C90FC90701D1C04331
:10323000410800B505F04CFA0022002300BD00B59E
:1032400000290ADBDB43524200D1013300F014F8BD
:10325000C943404200D1013100BDC943404200D1C1
:103260000131DB43524200D1013300F005F8DB436A
:10327000524200D1013300BD002923D1002B18D1C7
:10328000002A0CD0BC460D4F38667A660021002318
:10329000FFE7FFE7FFE77A6F386F67467047002860
:1032A00001D00748010000B505F012FA0022002302
:1032B00000BD02000B00002000217047000000D07C
:1032C000FFFFFFFF002B00D0BFE0130C28D1002A26
:1032D000E7D080B4114F39667A66FFE7FFE730B474
:1032E000040C7B6F396F1B0423433B667A66FFE750
:1032F000FFE7FFE7C04684B27B6F3D6F1B042343AB
:103300003B667A66FFE7FFE7C04600232C042D0CDE
:103310007A6F386F00196941B0BC7047000000D067
:10332000F0B594460025140E01D112020835140F91
:1033300001D112010435940F01D192000235D40F4E
:1033400001D152000135D40B0134254F7C66254C48
:103350003C660E0C93B2FFE7FFE7FFE73C6F664366
:10336000360C7703BE467343DF0B5B04C01AB941CA
:10337000130C7343DB18C91ACE086643360CB644E7
:1033800093B273431F0F1B01C01AB941130C73434F
:103390001F0B1B05C01AB941860D8F023E436643C1
:1033A000360C092D24DB520A7243801A7703460A31
:1033B0006643360C16235B1BDE40DF40BF196446B4
:1033C0006643821B7046043506330100D940A8408D
:1033D000C01900D30131A24206D20023F0BD000083
:1033E000000000D0FFFFFFFF121B0130F3D3F1E715
:1033F00009277F1BFE406446A2B27243801A00D2A6
:103400000139220C7243130C1204821A99410B00E9
:103410007046043513370100F940A840801900D3E5
:103420000131002B02D1A2420AD2F0BD013000D3FB
:103430000131121BFAD2013BF8D1A24200D2F0BDF9
:10344000013000D30131121BF7E7F0B51C0C00D09E
:1034500080E00CB400251C0A04D11B02160E334375
:10346000120208351C0B04D11B01160F3343120145
:1034700004359C0B04D19B00960F33439200023518
:10348000DC0B02D192185B4101351C009718644196
:103490000134464F7C66464C3C660E0CFFE7FFE766
:1034A000FFE7C0463C6F6643360C7703BE4697B2D3
:1034B0007743C01B00D20139C01B00D201399FB233
:1034C0007743C91BC91B170C77437E04FF0B801B76
:1034D000B941CE086643360C0C2D33DBB644120BD3
:1034E0001F053A431B0B97B27743C01B00D201392B
:1034F0009FB27743C91B170C77433E043F0C801BD8
:10350000B941860D8F023E43664329277F1BFE404B
:103510000C3D7746AF40BF1930BCA2B2ABB272438C
:103520007343801A9941220C7243130C1204801ABF
:10353000994102000B000137001BA941F9D2781E06
:103540000021F0BD0C277F1BFE4077467F0BAF406C
:10355000FF19E0E700245D1C07D0144F7D66396633
:10356000FFE7FFE7FFE7FFE73C6F95B29EB26543D9
:103570006643401BB141150C1E0C6543664336047F
:103580002F0C3E432D04401BB141994204D202004E
:103590000B0020000021F0BD01D19042F7D3801A2A
:1035A000994101349942F2D3F6E70000000000D0BF
:1035B000FFFFFFFF48404140484018B41B4B5B6889
:1035C000FC46019308BD04DF5B38001018B4174BAC
:1035D0001B68FC46019308BD00DF65380010944667
:1035E000134A926F920809D2624618B40F4BDB68F7
:1035F000FC46019308BD0CDF1D3B00100C4AF0B5E2
:10360000146E556E576F166F6246FFF7EEFF084A4D
:103610001466556657671667F0BD18B4034B9B6870
:10362000FC46019308BD08DFC1390010D00D002011
:10363000000000D0FFB550404240504059404B4040
:10364000594000E0FFB5154F4C00640D03D0BC425B
:1036500004D10C0314D80020090D09055C00640D89
:1036600003D0BC4204D11C030AD800221B0D1B0549
:1036700001264B4009D44B4003D58B4200D18242F6
:10368000FFBD9942FCD19042FFBD0B43DB180343C1
:103690001343F5D0C9434918FFBD0000FF070000E0
:1036A00000B5FFF7CFFF804100BDC04600B5FFF772
:1036B000C9FF01D9002000BD012000BD00B5FFF702
:1036C000B9FF01D9002000BD012000BD00B5FFF702
:1036D000B1FF804100BD012040054A00121804D806
:1036E0005A00121801D800207047012070470000CE
:1036F0000021002805D17047C1174840401AFAD070
:10370000C90713B5064B1B6898470CBC441CA24064
:103710001005120B0349091B09051943114310BD7C
:10372000B01B00201F04000010B54C00620D802368
:10373000D218DB00D21A5B057E2A10DD9E3A13DA1E
:10374000CC170903490819435242D140640001349F
:103750001532202A05DAD0400843604310BD00200E
:1037600010BD0846604310BDC80FC018013810BD19
:1037700018B4044B5B6AFC46019308BD24DF753E18
:1037800000100000D00D002018B4044BDB6FFC4685
:10379000019308BD7CDFF53E00100000D00D002035
:1037A00018B4044B9B69FC46019308BD18DFE93C43
:1037B00000100000D00D0020132370B51C78012CE0
:1037C00019D014DD1248FFF74FFB06001148FFF730
:1037D0004BFB114D80223100280000F0DDFC022C53
:1037E00013D00E48FFF738FB0D4B186070BD0D4A23
:1037F000094DAA64F5E7084D0A4A29002B008031DB
:1038000004C38B42FCD1AA64EBE7064AAA64E8E74A
:103810005344000053460000D00D00204C330000FC
:10382000B01B00202938001007B5604601880A0A3D
:103830000230DF2AFAD1C9B2820804D30288408854
:103840000004104300E00068014A5050039007BD97
:10385000D00D00200FB403BC0CBCF0B50124E4076C
:10386000634000E0F0B50C0DCF0F661E3605891BD6
:10387000640503D3C943404200D30131640D03D032
:10388000661CF60A07D0E41B00207F00791C89071C
:103890008912803C24031D0DDF0F6E1E36059B1B15
:1038A0006D0503D3DB43524200D301336D0D03D0CA
:1038B0006E1CF60A07D0ED1B00227F007B1C9B07C5
:1038C0009B12803D2D032F1B661B58D4A446202E2F
:1038D00046DA20371400BC401D00BD40F2403341A1
:1038E0002A4380185941CB0F05D0C943C043002259
:1038F00064425041514162464D0D28D10D0D07D112
:1039000000281FD0241940414941013A0D0DF9D03A
:10391000640006D3013000D30131002C01D14008EE
:103920004000013A0BD4941CE40A04D1120511445E
:10393000DB071944F0BDD907204B194300E0D90734
:103940000020F0BD0029DDD1002CDBD1F0BD01321B
:10395000C6074008CD0728434908002EE1D0D9E723
:103960003C2E29DA203E40371400BC4000D0012410
:10397000F24014431A00BB401C43D317ACE7AC46DB
:10398000202F08DA20360400B4400D00B540F8407E
:1039900039412843A5E73C2F0CDA203F403604008C
:1039A000B44000D00124F84004430800B1400C4367
:1039B000C117EAE710001900002494E70000F07F27
:1039C000F0B50C0D661E3605891BE60A6405640D0C
:1039D00002D0651CED0A04D0002001210905803CBD
:1039E0002403A4461C0D671E3F05DB1BE70A640584
:1039F000640D02D0651CED0A04D0002201231B05D2
:103A0000803C24037740644497B484B296B27443F4
:103A1000070C7E43150C6F4380B26843361802D3FF
:103A2000012000043F183004350C00197D41844604
:103A300088B29AB250430C0C62431F0C7C438EB286
:103A40007E43921902D301263604A4191604170CDA
:103A50003618674101BC81B29AB25143040C6243EB
:103A60001B0C5C4380B25843121802D3012000049F
:103A700024181004130C401863412D185E410020D7
:103A8000474106BC88B293B258430C0C6343120CF6
:103A9000544389B251435B1802D3012109046418CD
:103AA00019041A0C091862416D185641002047414B
:103AB00018BCF902720D1143F0026A0D1043ED02B9
:103AC0000A0D03D16D1940414941013B124E9B1B28
:103AD0007600B3420ED26D0007D30130002671414B
:103AE0006646354301D1400840001B05C918E4076C
:103AF0002144F0BD0BDA013306D1013004D101318C
:103B00004F0D01D04908F2E7E1070020F0BD013672
:103B100031050020EBE70000FF030000F0B51C0DAD
:103B2000671E3F05DB1BE70A6405640D02D0661CB7
:103B3000F60A04D0002201231B05803C2403D02573
:103B40002D060026F6432E661E096E66CE0FF61968
:103B5000B44649004F0D02D07E1CF60A03D0002067
:103B60000021403F3F033E1BB600B444013F7F05A8
:103B7000C91B49082E6F013676089C02950D254316
:103B80007543ED137543AD1301356D10F603761BC8
:103B90000CB4CC02450D2C43A2B2B3B25A43270C4D
:103BA0007B43350C6F43A4B26C431B1902D3012431
:103BB00024043F191C041D0CA4187D4124196D41D7
:103BC000009A91B2ACB26143170C7C432B0C5F435B
:103BD00092B25A43A41802D301221204BF1822043D
:103BE000230C52187B41019C6C431B19520ED901C6
:103BF0000A434401A01A81B2B2B2514303145A439A
:103C0000360C734387B27743D617D21900277E410B
:103C100036049B191704160C7F185E417316ED18B5
:103C2000F301002680337541A90F06D16400690AAB
:103C3000E8055B0A184309D22FE00422944480333C
:103C40007541A90AA8059B0A184326D3404149415A
:103C50002404009A019B0D005543641B4343E41A5E
:103C600095B286B27543170C7E43030C5F4392B244
:103C70005A43B61802D301221204BF183204330C7F
:103C800052197B4152429C41002C02D40022013047
:103C900051414008CA071043490802B06246D7079D
:103CA0009210084BD218084B9A4203D21205891879
:103CB000C919F0BD0020002A01DC3900F0BD013334
:103CC0001905F5E7FD030000FE07000007DA0021F3
:103CD00007E0C90FC907520D03D0C91201E04C49D2
:103CE000090500207047C0464A00F2D2520D013A41
:103CF000484B9A42EAD2F0B51405091B520801D389
:103D0000001849419B08D2181205944640A44A0C59
:103D1000A25C0B09534353431B1353435B1312021F
:103D2000D21A13005B435B0B4C086343DB13534312
:103D3000DB1501335B10D21A130CD21A13005B434C
:103D40008902840D21438DB29EB275430F0C7E43D0
:103D50001B0C5F438CB25C43361902D3012424044C
:103D60003F193404330C64197B419D01A40E2C438C
:103D70002034A5B25543241454432D0C6419A411C6
:103D8000D203121B95B28EB27543170C7E430C0CF6
:103D9000674393B26343F61802D301231B04FF1851
:103DA0003304340C5B197C41DB186441DB180023BD
:103DB00063419EB276439DB21F0C7D437F436C04EA
:103DC000ED0BA4197D4106028F08361BAF417D071C
:103DD000F6086E41B4B295B26C4337147D43120CB1
:103DE0005743B6B25643EA17AD1900267241120482
:103DF000BF182E042A0C36197A410832521117D2F4
:103E00009D0A9C05D117101969416144F0BD00005D
:103E1000FF070000FE070000F8EBDFD6CDC5BEB8F7
:103E2000B2ADA8A4A09C9995928F8D8A8885838134
:103E300052415D0ADC05D11714194D412B00634333
:103E4000A6B27643A2B2270C7A437F435104D20B29
:103E500089197A41D218D21880054942904102D47A
:103E6000002301345D4160086908ED07284361447F
:103E7000F0BDC046002200B5203200F004F8080072
:103E800000BD000000220B150AD410B5944600F0C6
:103E90005FF81414013400DA0021CB17144C2047CA
:103EA0000020002170476244343A0CD40C2A07DA0F
:103EB00004009140904052422032D440214310BD32
:103EC000D843D94310BD203207D40C469440524207
:103ED00020321141D040204310BD0800C9172032C4
:103EE00003D452422032104110BD1800190010BDF9
:103EF000A73E00104A00520D144BD21A13DDFF2AC0
:103F00001EDAD205CB0FDB071A43C300400F0903AB
:103F1000490A084310435B0001D301D001307047C8
:103F20004308FBD2704702D0C80FC00770470A038E
:103F300012130132F8D1420F072AF5D1012200E015
:103F4000FF22C80F00028018C005704780030000E0
:103F50000A0DCC0F531E1B05C91A520503D3C943C2
:103F6000404200D30131520D03D0531CDB0A07D06D
:103F7000121B00206400611C89078912803A120319
:103F8000014BD21A70470000FF0300005143434326
:103F9000C9188C46110C83B24B4310B4040C614316
:103FA00092B280B2504362431C041B0C001910BC37
:103FB00059411304120CC01851416144704700006C
:103FC0004840414048400E4B5B6818470C4B1B680B
:103FD00018470C4A936F9B0802D2094BDB681847BD
:103FE000F0B5146E556E576F166FFFF7F6FF054A62
:103FF0001466556657671667F0BD014B9B681847F6
:10400000B41B0020000000D007B5484041404840A4
:1040100001E0C04607B54200120E03D0FF2A03D1CB
:10402000420218D8C00DC0054A00120E03D0FF2A64
:1040300003D14A020FD8C90DC9050122414005D458
:10404000414001D5814207BD884207BD014349185F
:1040500001D0C043001807BD00B5FFF7D5FF804170
:1040600000BD491A002807D108467047C10FC9078B
:1040700000D54042002817D0F44603B40B4B1B6810
:10408000984706BC81409E384042803107D20B06DB
:1040900007D04900490AC005104308436047013072
:1040A000F8E7490A8902F5E770470000B01B0020D5
:1040B000034BDB6FFC4618477CDF4D4100100000CE
:1040C000B41B0020132310B510481C78FEF7CCFE5B
:1040D0000100012C0AD003DD80220D4800F05CF8BD
:1040E0000C48FEF7B9FE0C4B186010BD084C54226A
:1040F000200000F051F823002100084A5433803199
:1041000004C38B42FCD12262E261E9E7534600001E
:10411000B41B00204C330000B01B002021410010D4
:1041200007B5604601880A0A0230DF2AFAD1C9B20F
:10413000820804D3028840880004104300E000682D
:10414000014A5050039007BDB41B0020C30FDB078A
:1041500041000A0E07D0FF2A08D00909054A89182C
:104160001943400770471900002070470249C918D9
:10417000FAE70000000000380000F07F0148042149
:10418000014B1847F00B0020792E0010014B1B68E3
:1041900018470000F00B0020014B5B681847000037
:1041A000F00B00209A4200D2885470477047C046F6
:1041B000F8B55746DE464E464546E0B599460A9B59
:1041C00007009A460D9B884693460B9C9B073CD163
:1041D0000C9B9C423ED20C9B0B941E1B15000C00AA
:1041E0005E442A004B46013521002020B847B542E5
:1041F000F7D1A0460B9C002C20D0454636195346DB
:10420000321B013C185D29004B46B847002CF6D103
:104210002B00350098460D9B9B070FD55B46EC1A8B
:104220000C9BA3420AD9464698462A004B463100C9
:1042300020200134B84701354445F6D32800F0BCAE
:10424000BB46B246A946A046F8BD16001500002C94
:10425000D3D1E0E716001500002CCED1EEE7C04622
:10426000F0B54546DE4657464E46E0B585B09C461D
:1042700010AB1B78149F934698460F9C129E139D7B
:10428000BB074DD4002D43D1B44249D201233B405A
:1042900099460E9B013B9A46302304E05246013476
:1042A0001355A64201D9202CF8D14B46002B00D142
:1042B00085E00E9B013B99463023A54205D82FE0AF
:1042C0004A4601341355AC422AD0202CF8D1FB06C3
:1042D0000DD57B0555D4A64264D0A54262D0119B72
:1042E000102B51D0119B022B57D0202C32D12023E0
:1042F00001930E9B5A460093039763460295FFF77E
:1043000057FF05B0F0BCBB46B246A946A046F0BD7B
:1043100001233B40994601233B422AD1B442B8D302
:10432000FB061CD57B05DAD4002CD4D1119B102BB5
:104330005DD0119B022B6DD0302301240E9A137097
:104340004346002B10D17B073FD52B260E9A631CCA
:104350001655CDE72300013430260E9AD654202C72
:10436000C5D04346002BEED02D260E9A631C165561
:10437000BEE74346002B31D0013DB44200D288E76E
:1043800097E7119B102BB2D1BB0639D5202CAED0AC
:1043900058230E9A13550134A7E7202CA7D02300E9
:1043A000013408E0631E012CC0D0119A102A33D0CA
:1043B000119A022AD0D162260E9AD65495E7FB06AE
:1043C000CDD57B0500D486E789E723003E0700D4DE
:1043D0008EE720260E9A0133165589E70C233B40C1
:1043E0005A1E9341ED1AB44200D252E761E7BB0670
:1043F0000ED478230E9A02241370302353709FE753
:10440000202C00D173E778230E9A135501346CE702
:104410005823EFE76033EDE70E9AA61E91464E440F
:10442000BA0602D55822327096E77822327093E7A6
:10443000F0B557464546DE464E46E0B593B09B463E
:104440001CAB80CB80461B78894692461E9D099303
:10445000002F07D11022219B00249343219A2193FE
:10446000520524D4219B61229B0639D4D3B202AADF
:104470001F2694460A3B00246644089308E0303324
:10448000DBB201343355AF4211D3202C0FD00700DB
:1044900029003800FEF756FECBB20929EFD9089A59
:1044A000013494466344DBB23355AF42EDD2219BD5
:1044B00052460693209B494605931F9B4046049312
:1044C000099B039502930AAB009301945B46FFF7A7
:1044D000C7FE13B0F0BCBB46B246A946A046F0BD2D
:1044E0004122C3E7F0B55746DE464E464546E0B5A5
:1044F00095B09B461E9B1F9D9A4620AB1B78229F22
:104500000B935346239E089009910A922B4307D19F
:104510001022269B00249343269A2693520530D4DA
:10452000269A6123920645D404A91F228C46624430
:1045300090460A2252429146DBB299443B00002445
:1045400057469A460CE043463032D2B201341A55EF
:10455000AE4215D8AE422FD0202C11D007000D004E
:104560005246330038002900FEF72AFED2B2092A4B
:10457000E9D943464A44D2B201341A55AE42E9D988
:104580005746269B0A9A0693259B09990593249BD7
:10459000089804930B9B039702930CAB0093019430
:1045A0005B46FFF75DFE15B0F0BCBB46B246A946C0
:1045B000A046F0BD4123B7E7BA45CDD95746E0E75D
:1045C000F0B557464E46DE464546E0B593B01C9ED4
:1045D0001D9F824688469346994632003B00300034
:1045E0003900FFF778F8002848D10122300039005F
:1045F000CC4B5242FFF76AF800283FD1012230002D
:104600003900C94B5242FFF74BF8002836D100223F
:10461000002330003900FFF743F8002800D0D3E131
:1046200006960797069807998023209ADB001A4080
:104630000F928022209D120115402A000D95209D89
:104640000C0008901D4230D10B00034355D1002AC5
:1046500000D00DE206331E930225209B209A1D40B8
:104660000223134200D005E21F9B042B00D207E275
:10467000043B0D93002304240A93FDE0209B009645
:10468000019704931F9B03931E9B02934B465A462C
:104690004146504600F020FA0400200013B0F0BC60
:1046A000BB46B246A946A046F0BD069A079B190034
:1046B000114324D10D9B002BCED000230A931E9BC7
:1046C0000A9A0024934200DDF3E100220023300027
:1046D0003900FEF7E5FF002800D0B3E1209B934AA4
:1046E00002941A408023DB00134304931F9B03931F
:1046F000069B079C00930194C8E706231E938C4BEE
:1047000060009C46400D6044FEF7F6FF894A8A4BE4
:10471000FEF783FF894A8A4BFEF758FF2403894B33
:10472000240B23430A900B91002208981900864B12
:10473000FEF743FF854A864BFEF76FFF02000B0032
:104740000A980B99FEF742FFFEF7EEFF0A90FEF77C
:10475000D3FF804A804B04000D00FEF75EFF00226D
:104760007E4BFEF733FFFEF7DFFF7D4A7D4B2900CE
:104770000E902000FEF751FF04000E980D00FEF78A
:10478000BBFF794A794BFEF748FF02000B0020007F
:104790002900FEF712FF04000D0002000B00089430
:1047A0000995FEF73AFF04000D00089809990200E8
:1047B0000B00FEF70BFF0022109011916C4B2000B4
:1047C0002900FEF70CFF00226A4BFEF7FFFE0200F5
:1047D0000B0020002900FEF702FF0022664BFEF7C7
:1047E000F5FE02000B0020002900FEF7F8FE089AF3
:1047F000099B0D0080210400C9050020FEF7DDFEA5
:1048000002000B0020002900FEF7E0FE02000B0072
:1048100010981199FEF7E3FE00224A4BFEF7D6FEF0
:10482000564B0E9C9C46644423050022FEF7F5FE81
:10483000069A079B04000D00FEF748FF002800D0F1
:104840009EE00A9B089409956333C62B00D8A7E025
:104850000223209D05241D400D9B002B00D0BBE0B2
:104860001F9B052B00D90DE106980799089A099B13
:10487000FEF7B5FE069007910022002330003900B4
:10488000FEF70EFF294B209A134004930D9B0393D0
:104890001E9B0293002800D0F9E0069A079B414630
:1048A0000092019350464B465A4600F015F902001B
:1048B0002020209B561C034059424B415B4218402C
:1048C00041464B464530D0470523059300230A9ABD
:1048D00003930A330293D30F01931300D2179B184B
:1048E0005340013C0494009332004B4641465046ED
:1048F000FFF79EFD0400002D00D1CEE65B46C51AF1
:104900001F9BAB4200D8C8E65646474622004B469E
:1049100039002020B0471F9B01350134AB42F5D848
:10492000BBE6C046FFFFEF7FFFFFEFFFFFF7FFFF94
:1049300001FCFFFFFB799F501344D33FB3C8608B4A
:10494000288AC63F0000F03F0000F83F61436F63D4
:10495000A787D23F71A379094F930A400000E03F37
:104960001655B5BBB16B0240EF39FAFE422EE63F59
:1049700000002C400000244000001840FF0300000D
:104980000A9B0022013B0A9320004E4B2900FEF7B0
:1049900026FE0A9B089009916333C62B00D957E77E
:1049A0000223209D04241D400D9B002B14D11F9B2E
:1049B000042B04D9002D00D17EE0042402250A9B9B
:1049C000002B00D050E757E780231B069C46BC44D1
:1049D00063460696079325E6089A099B110019433A
:1049E00000D16CE606980799374A384BFEF766FE09
:1049F000002808D0069807990022354BFEF750FE94
:104A0000002800D05BE61E9B002B10D00F9B002BD4
:104A10000DD01E9B013B1E9300230D931F9BA342B1
:104A2000CDD9002D3DD0002302250D93C7E70023EB
:104A30000D931F9BA342C2D9002D32D00023022523
:104A40000D93BCE78020209B224A00061A40802359
:104A500084460294069C079D2900DB0013430493BF
:104A60001F9B6144220003930B00009201930DE60B
:104A700005242AE60023042402250D930A93FBE66D
:104A80000423F5E5002D0FD002250524ECE6802057
:104A9000069E079F000639008446614432000B00E1
:104AA000FDE61B1B0D938AE71F9B0524053B0D9319
:104AB000DAE69C1A013C08E61F9B0424043B0D9394
:104AC0007DE7C046000024402D431CEBE2361A3F30
:104AD00080842E41FFF7FFFFF0B54E46DE46454687
:104AE0005746E0B595B08B46904699461E9A1F9B57
:104AF0000A9019001000209EFEF7EDFD002800D05E
:104B0000A2E11E981F990122C64B5242FEF7C8FD32
:104B1000002800D006E11E981F990122C24B524284
:104B2000FEF7D4FD002800D0DCE01E981F9900227B
:104B3000BE4BFEF7CBFD002800D0BDE01E981F99AC
:104B40000022BB4BFEF7ACFD002800D0B4E01E985D
:104B50001F9900220023FEF7A3FD002800D0D6E015
:104B600000230B93229B5B0500D4062600243023F0
:104B700007E0172106AA013452181355013E202CD4
:104B800001D0092EF5D81E981F99FEF7CDFDA94B2F
:104B9000F2009B181A685B68050008920993FEF7FB
:104BA000ABFD02000B001E981F99FEF706FD089A48
:104BB000099BFEF732FD06900791FEF7D9FD07002D
:104BC000FEF796FD02000B0006980799FEF7F5FC2C
:104BD0000022994B06900791FEF778FD002800D13E
:104BE000C9E001373800FEF783FD02000B0008988A
:104BF0000999FEF75BFD002801D000270135002E42
:104C000000D197E006AA1723944663449A46069576
:104C100011E053460A21380001341D19FEF792FABB
:104C20003031297038000A21013EFEF78BFA092F36
:104C300000D8BDE00700202CEBD1069D0CAB202452
:104C40009A4606AB17279C4667440EE028000A21C7
:104C5000FEF750FA01343031E619280031700A218C
:104C6000FEF748FA051E00D192E0202CEED1032376
:104C7000229A1340012B18D1219B002B15D00B9B9E
:104C8000002B00D1AAE0219B013B2193202B0CD9C2
:104C9000302308E0172106AA521801341355219A2F
:104CA000944200D379E0202CF4D1229B0194039309
:104CB000219B029353461FE0229B42460493219B73
:104CC000594603930A981E9B1F9C029600930194D9
:104CD0004B46FFF775FC15B0F0BCBB46B246A94683
:104CE000A046F0BD229B5B070ED40322534B2299B2
:104CF0000192039121990291009342464B465946F5
:104D00000A98FFF755FAE6E704224D4BEFE71E9AA3
:104D10001F9B00200021FEF750FC01231E901F91D5
:104D20000B931FE7229B0393219B02930423019380
:104D3000444BE1E72800FEF7DFFC02000B001E9861
:104D40001F99FEF73AFC3C4B002206000F00FEF7CD
:104D5000A7FC0CAB9A46002800D072E70022300076
:104D60003900354BFEF7B2FC002800D069E701237B
:104D700001359D4365E70022069807992E4BFEF703
:104D80008FFC002800D03AE7002F45D1013736E7E5
:104D90000323229A1340012B63D0202C00D184E7F7
:104DA0000B9B002B27D02D235246135501347CE753
:104DB000069D202C00D141E73023361905E05246EC
:104DC00001341355202C00D138E7B442F7D10CAB95
:104DD0009A462E2352460134935532E70C23229AE9
:104DE000134239D0219B013B21939C4200D24FE7D3
:104DF000202C00D159E7229B5B0704D52B23524678
:104E00001355013451E7229B1B0700D44DE72023A3
:104E100052461355013448E7FB0700D4EFE601374B
:104E2000EDE6C046FFFFEFFFFFFFEF7F65CDCD4111
:104E300065CDCDC108A000100000E03FA495001092
:104E40009C950010AC950010229B0393219B02932C
:104E5000032301930A4B4FE7219B9C4200D217E7A3
:104E600023E7219B002B98D00B9B002BB6D0219BD6
:104E7000013B21939C4200D20AE7202C93D114E7F6
:104E8000A895001010B5002800D110BD00F066FDF7
:104E9000FBE7C0460B0010B5002802D049681B682C
:104EA000984710BDF0B55746DE464E464546E0B53C
:104EB00097B01C00209B17000B93CD4ACD4B834627
:104EC0008A461A60002900D1C1E120780025002817
:104ED00000D1C3E1C84BB8469946C84B5F460D9315
:104EE000D346CA4608E02A00434659466E1CB847D6
:104EF00035002078002876D001342528F3D104230A
:104F00009946023B00269C462078611C0300203B0A
:104F1000DBB2102B03D852469B00D3589F460300A8
:104F2000303B092B38D9002399462A2800D19EE02E
:104F300000230C932E2844D00200683AD2B2122AE1
:104F40001CD80D9B92009A58974601230C001E43D3
:104F5000DAE763460C001E43D6E74B460C001E43BF
:104F6000D2E710230C001E43CEE708230C001E439B
:104F7000CAE7802260785200164301310C0067288E
:104F800045D82428AFD90200253AD2B2422AAAD85D
:104F90009B4992008A58974600231A0000E001318D
:104FA00093009B185B001A1808780C000300303B34
:104FB000303A092BF3D90023914601310C932E2866
:104FC000BAD18020303B9C46C000064360780A007E
:104FD00084446346092B00D842E12A2800D159E1D4
:104FE0000C000131A8E7DA462C00BB464746AF4229
:104FF00000D87D1E3B002A0051460020D8472000E3
:1050000017B0F0BCBB46B246A946A046F0BD0200B0
:10501000693AD2B20F2A00D965E70121794B914054
:105020009C460B400E936346194200D028E10A2AA1
:1050300027D0072A00D056E721220B9B32439946FE
:10504000059208220C9B0492039310234A46029374
:105050000E9B5946019308CA3800914600932A00D6
:105060004346FFF7E5F94B4605000B9341E70B9BE1
:1050700004CB9146002A57DB60780B930C0001317A
:1050800056E70B9B0C9904CB94461093002900D152
:105090000BE16346187862466144002805D15FE25F
:1050A00053780132002B00D166E19142F8D163467A
:1050B000CB1A0F9380223300D20013400B93164279
:1050C00004D00F9A0C9B9A4200D90F93B60700D4D4
:1050D0008FE102230E9363462A005D1B4B4611931A
:1050E0002300A9465C460C9D9B4600E032000B9BCA
:1050F000002B04D06B1E002D00D150E11D00434653
:105100002100561CB8474B46985D0028EED1119BF4
:1051100099465B46A3461C000E9B002B00D08BE1FA
:10512000109B35000B93E4E6022216434A46524296
:10513000607891460C000B930131F9E660786C2899
:1051400000D11DE1802252001643013116E7802272
:10515000920060781643013110E76078682800D12A
:1051600014E180220131164308E7672800D1A1E04D
:10517000472800D1FAE0452800D1FAE00B9A072130
:10518000073213004A468B43190003920C9A049687
:1051900002920CC93800009201930B912A004346F9
:1051A0005946FFF70DFA0500A3E6462800D17EE038
:1051B0000B9A0721073213004A468B4319000392CA
:1051C0000C9A049602920CC93800009201930B913C
:1051D0002A0043465946FFF77FFC050089E62A006E
:1051E0004346594625206E1CB847350081E6C04627
:1051F000A54E0010841B0020689E0010AC9E00107D
:10520000F89E0010419000006B1C0E930B9B043322
:105210000C93B60700D4C9E00B9B2A0018785946B6
:105220004346B8474B464D44012B00D85CE1A146AC
:105230005C460E9E32004346013621002020B847CE
:10524000B542F7D1A3464C460C9B0B9351E6D44B89
:1052500020789B460025002800D03BE60024C6E6C7
:1052600000218B005B185B0001321918107830396F
:105270000300303B092BF4D90C911400511C5BE660
:105280006F281BD000D850E11021782817D08E430A
:10529000063914E00B9AA07808CA0234D943C9171A
:1052A0000B400C930B92611C46E60139F1E620227B
:1052B00016437DE78022120116435FE7082172053D
:1052C00000D4CEE00D2296433200802013008000EF
:1052D00003409C46024200D008E10B9B1E1DD005F6
:1052E00000D52CE10B9B500600D5F5E0100600D44C
:1052F00042E118884B4604930C9B059203930023CC
:105300000291019300902A00434659463800FFF766
:105310008FF80B960500ECE558283CD00221622856
:10532000CDD0720500D4D3E011229643320091050E
:1053300000D59AE00B9B1E1DD10500D5E6E00B9B26
:10534000510600D5C1E0110600D404E10021595EE8
:10535000CB17C818584080B24B4604930C9BC90F1A
:1053600003930A23059202930191CBE78022120155
:1053700016432022164301E76346D31A0F9399E69A
:10538000C0229200A0781643E11CF7E5C022A07865
:105390001643E11CF2E52022102116438FE7119BF2
:1053A000160099465B46A3461C00B5E64B46012B0A
:1053B00000D893E06B1E4B444A462E00A9465D463A
:1053C000A3461C000E930F9232004346013629007B
:1053D0002020B847B442F7D10F9B5C46AB464D4600
:1053E00099460B9B594618780E9A43464D44B84748
:1053F0002AE70F9B994500D8D4E04B465E190F9BD6
:10540000F61A63460F9323005C469B462A004346E8
:10541000013521002020B847AE42F7D10F9B9C46B2
:105420005B46A3461C004B4601330F936346187836
:10543000002800D04FE673E635000F9B994500D851
:10544000ACE04A46A1465C465619F61A2A00434685
:10545000013521002020B847AE42F7D1A3464C4683
:105460005EE60C22964332002FE7082307209C4675
:105470000B99073181438C44634603C90B934B4618
:1054800007930C9B089206930A220023049205932B
:10549000CB0F0293CB1712931393129A139B160000
:1054A0004640180048401496159014981599801A93
:1054B000994102000B000092019359462A0043468D
:1054C0003800FFF70FF8050013E51978080043E7E7
:1054D0001022964332002AE718780BE70B9B2A002C
:1054E000187859464346B8470E9DADE64B4607939C
:1054F0000C9B0726069300230B9808920730B043B5
:105500000491059302930CC80B90D4E719684B469D
:1055100004930C9B059203930A230293CB0F0193F0
:10552000CB17C91859400091EDE610223300934380
:105530001A00692822D1710500D4F8E6F4E64B463A
:1055400004930C9B05920393634601930B9B02917A
:105550001B680093D7E61968CB17C8185840FBE6BC
:1055600080223300D20013400F93164209D0B607B1
:105570001DD500230F9360E71868BBE61E000A21C3
:105580009DE60222130033400B93324200D054E7D1
:1055900000230F934B46002B00D02EE72E00BFE5D3
:1055A000AD41001001330F9300230E9393E50B924E
:1055B000EEE7C0460CB430B585B008AC08CC064D5B
:1055C0000A000094010028000394FFF76BFC05B06B
:1055D00030BC08BC02B01847A541001010B50C0043
:1055E00084B00394012402A902900093034813009D
:1055F0006242FFF757FC04B010BDC046954E001044
:1056000010B5094A0300146884B0002C08D00122A8
:1056100000910648524203A9A047012004B010BDE2
:1056200000F0AAF90020F9E7841B0020854E001045
:1056300000BEFDE710B5FFF7FBFFC04670B5FDF7F4
:105640006BFC074D074EB54209D20024013E761B84
:10565000B60808CD984723000134B342F9D170BD94
:10566000AC870010B8870010030010B508001100C7
:105670001B68984710BDC046F8B557464E4645468C
:10568000DE46E0B5437D80460F001600002B48D073
:10569000002300249946002A2ADD244B9B464B1EFA
:1056A0009A4604E07B5D0A2B28D0A64212D0250042
:1056B0000134002DF6D13B780A2BF6D143461B7DF1
:1056C000002BF2D14346022158461B68A146984759
:1056D000A642ECD14E4505DD4B46F11AF81843467B
:1056E0001B6898477B5D0D3B5A42534142461375F8
:1056F000F0BCBB46B246A946A046F8BD53465B5D2A
:105700000D2BD2D0A945DDDA4B46E91AF8184346ED
:105710001B6898474346022158461B68A146984794
:10572000D6E70368110038009847E1E758A0001059
:10573000F0B5C6460B6806000C0000B5802B06D0FD
:105740005A1C2260E418267180BCB846F0BD0F4B8D
:105750001D68002D16D00B1D98460D4F02E02D69D7
:10576000002D0FD02B68002BF9D03B68002B01D007
:10577000AB42F4D1280041462268FFF77DFF2D6936
:10578000002DEFD101220023DBE7C046781700206F
:1057900080170020F0B54546DE464E465746E0B538
:1057A00085B091461C0080460D00FDF7C1F800232E
:1057B000254A12184B41002B02DA0122234B524298
:1057C000234908008A4602F0B3FF01906B1C03D105
:1057D000404602F0DDFD0500002C2FD01D4F1E4B72
:1057E0001C68002C1FD00A231C4E9B4602E0246933
:1057F000002C18D02368002BF9D03368002B01D07F
:10580000A342F4D12A0041462000B8474B46002B62
:10581000EDD05A4602AB2000DA71D91D0122B847FB
:105820002469002CE6D1019B002B09D1280005B08A
:10583000F0BCBB46B246A946A046F0BD084FCEE735
:10584000504602F03DFFF1E740420F00FFFFFF7FAF
:10585000400C002079560010781700208017002097
:1058600069560010F8B557464E464546DE469846FE
:105870001A4BE0B59B461A4B07000E0091469A461C
:10588000184D5B461C68002C03D115E02469002CE0
:1058900012D02B68002B01D0A342F7D1A368002BB4
:1058A000F4D03100380098470028EFDDF0BCBB464B
:1058B000B246A946A046F8BD53465B6A984508D84B
:1058C0005246926A4A4502D302204042EEE798458A
:1058D000FAD101200021FDF735F8D2E77817002032
:1058E00000400540801700200A4A1368002B05D1AC
:1058F0000CE01A001B691032002B07D08342F8D14C
:10590000002902D118691060196170470029FCD084
:105910001060FAE77817002010B500F0CDFA10BD3E
:1059200010B5040082B0FDF703F82200002312181E
:105930004B41002B02DA0122074B5242012101A800
:10594000FFF790FF002803DB6B46187902B010BD0B
:1059500002204042FAE7C046FFFFFF7F10B582B049
:105960006B4604000022D81D012101230470FFF7BB
:1059700011FF200002B010BD70B5040002F008FD58
:1059800001230100050001222000FFF703FF064B61
:105990001C68002C06D06368002B00D0984724694F
:1059A000002CF8D1280070BD78170020F0B5CE4645
:1059B000474680B5A3B004000D00FCF7B9FF0023F3
:1059C000264A12184B41002B02DA0122244B524284
:1059D000244E300002F0ACFE0023220001930700A9
:1059E0002B00214801A9FFF7F9FD204B804699467D
:1059F0001C68019B002B1AD0002C2DD01C4D02E0FE
:105A00002469002C0FD02368002BF9D02B68002BC1
:105A100001D09C42F4D12000019A02A9FFF72CFE8C
:105A20002469002CEFD14B461C6800230193002C05
:105A300006D06368002B00D098472469002CF8D169
:105A4000002F05D1404623B0C0BCB946B046F0BDDA
:105A5000300002F035FEF5E70194F1E740420F0017
:105A6000FFFFFF7F400C0020315700107817002007
:105A7000801700200FB400B583B004A901C90191BB
:105A8000FFF794FF03B008BC04B018477047C04646
:105A90000022014B1A707047DA1C00204B7900205D
:105AA000FF2B0BD18B79002B08D1CB79012B05D1A2
:105AB000082A03D9024B8A7809301A707047C04609
:105AC000DA1C00200120704710B5012913D11249BA
:105AD0005379107909781B0203430020994200D0C2
