:020000041000EA
:1000000000B5324B212058609868022188439860DF
:10001000D860186158612E4B002199600221596106
:100020000121F02299502B49196001219960352056
:1000300000F044F80222904214D00621196600F024
:1000400034F8196E01211966002018661A6600F04E
:100050002CF8196E196E196E052000F02FF8012189
:100060000842F9D1002199601B49196000215960AB
:100070001A491B48016001219960EB211966A021F2
:10008000196600F012F800219960164914480160C1
:100090000121996001BC002800D000471248134993
:1000A000086003C880F30888084703B5996A0420EC
:1000B0000142FBD001200142F8D103BD02B5186610
:1000C0001866FFF7F2FF186E186E02BD00000240BE
:1000D000000000180000070000035F00212200005C
:1000E000F4000018222000A00001001008ED00E03C
:1000F00000000000000000000000000074B24E7A12
:1001000000200420F7010010CB010010CD010010E9
:10011000C9010010C9010010C9010010C901001077
:10012000C9010010C9010010C9010010CF01001061
:10013000C9010010C9010010D1010010D301001045
:10014000C1010010C1010010C1010010C101001067
:10015000C1010010C1010010C1010010C101001057
:10016000C1010010C1010010C1010010C101001047
:10017000C1010010C1010010C1010010C101001037
:10018000C1010010C1010010C1010010C101001027
:10019000C1010010C1010010C1010010C101001017
:1001A000C1010010C1010010C1010010C101001007
:1001B000C1010010C1010010C1010010C1010010F7
:1001C000EFF30580103800BE00BE00BE00BE00BECA
:1001D00000BE00BEF2EB8871E08A0010008B0010B8
:1001E0003802001090A31AE71E481F49086006C88D
:1001F00081F3088810471D480068002801D019487D
:10020000F3E70DA40ECC002902D000F012F8F9E7B4
:100210001749184A002000E001C19142FCD116495B
:100220008847164988471649884700BEFDE701C937
:1002300001C29A42FBD37047008B0010C00000201F
:10024000400C0020809600100000042000000420D4
:100250008096001000100420001004200000000010
:10026000704700000000000008ED00E0000000D032
:10027000400C0020D81C0020F94800102103001079
:10028000F1480010F8B5C0460448054B10B583424C
:1002900003D0044B002B00D0984710BD400C002029
:1002A000400C00200000000006480749091A8B1086
:1002B000C90FC91810B5491003D0044B002B00D04A
:1002C000984710BD400C0020400C002000000000AA
:1002D00010B5074C2378002B09D1FFF7D5FF054B4C
:1002E000002B02D0044800E000BF0123237010BDA2
:1002F000C80E002000000000C8760010054B10B5A5
:10030000002B03D00449054800E000BFFFF7CCFFF5
:1003100010BDC04600000000CC0E0020C8760010C2
:1003200080B5164FBD4404F055FC9620C00001F086
:100330005FFDE1211248490201F0B4FE02210420D0
:1003400000F040FF0221052000F03CFF00230122C5
:1003500008210B4801F0EAFE0121094801F022FFC3
:1003600001A800F00FF801A800F0F4FB002802D16A
:1003700001A800F013F801A800F0A6FCF8FBFFFFAD
:10038000008003400023802210B504000370002188
:10039000D200013003F058F8200010BD70B51548A8
:1003A00004F048FC144C2025FA20800004F016FCD0
:1003B000831C07D00A2812D0A3691D42FCD1FF2359
:1003C00003402360A369DB06EED41022A3691A421E
:1003D000FCD1FF202368184004F01EFCE3E7A3696A
:1003E0001D42FCD10D232360A3691D42FCD10A23C9
:1003F0002360E7E7C87600100080034010B50C7852
:10040000002C09D020200C4A013193691842FCD1FC
:1004100014600C78002CF7D12021074A9369194207
:10042000FCD10D2320211360034A93691942FCD1AA
:100430000A23136010BDC04600800340F8B5CE46C5
:10044000474680B5884601F085FDFA2204000D007C
:10045000002340460021920002F090FF06000F00AA
:10046000A4197D41002D02DA0124174D6442174B77
:100470009846174B99462A00102143465B6A9A42D8
:1004800009D84046806AA04201D29A4203D0C0BC3B
:10049000B946B046F8BD4B469B691942EDD11021D3
:1004A0000B4A93691942FCD1FF201368184004F0ED
:1004B000B3FB01F04FFD8019794104000D1EDADA1B
:1004C0000124014D6442D6E7FFFFFF7F0040054055
:1004D00000800340F0B5DE4657464E464546E0B53F
:1004E0009B460E001500170095B0082A00DD08276E
:1004F000002D18DD04AB984600239A4633000024F3
:100500004646A94698464346A500585906F0CAFEF5
:10051000202204AB9B185246013401C65A51BC42FA
:10052000F1DB46464D4601F015FDFA22002300900E
:10053000019158460021920002F020FF009B019C8F
:100540001B184C4100930194002C04DA01232E4C1B
:100550005B4200930194019B99462C4B9B462C4B8C
:10056000984610239A462B004D4699465B465B6A97
:100570009D420FD85A460099926A8A4201D29D4202
:1005800008D00120404215B0F0BCBB46B246A94697
:10059000A046F0BD434652469B691A42E6D110215F
:1005A0001B4A93691942FCD1FF2013681840DCB242
:1005B00004F032FB4B46002BD8DD04AABC46039561
:1005C00037000020150026000CAB09E00A78013046
:1005D000921B51424A4104351A60043360450FDAD8
:1005E0008200B9581A688C5CB442EFD12968013294
:1005F0001A608A42C7D00130043304356045EFDB0E
:100600003E00039D6746B1E7FFFFFF7F00400540C6
:100610000080034000B583B013000191012201A9BD
:10062000FFF758FF43425841C0B203B000BDC04677
:10063000F8B5DE4657464E464546E0B59A469046E2
:10064000894601F087FCFA2204000D000023504681
:100650000021920002F092FE06000F00A4197D41D5
:10066000002D02DA01241D4D644200239A46D04534
:100670000BDD1B4B29009C461A4A536A99420BD842
:10068000906AA04201D2994206D05046F0BCBB46C7
:10069000B246A946A046F8BD634610209B691842A1
:1006A000EBD110210E4A93691942FCD11368012243
:1006B00094464A46E2445146FF20013A53541840BA
:1006C00004F0AAFA01F046FC8019794104000D1EDD
:1006D000CDDA0124014D6442C9E7C046FFFFFF7F28
:1006E0000080034000400540F0B5DE4657464E46C8
:1006F0004546E0B587B01C0005928B4601F02AFC08
:10070000FA2206000F00200000230021920002F0D0
:1007100035FE8019794104000D1E02DA0124664D70
:100720006442002399460093644B029403959A46D1
:10073000634F7B6A9D420DD8BA6A02998A4201D200
:100740009D4207D0002007B0F0BCBB46B246A94688
:10075000A046F0BD534610229B691A42E9D1574981
:1007600016008B691E401A42FAD1FF220B681A400C
:1007700010009046DCB204F04FFA4A46514B9B5CA5
:10078000A3420ED04346722B5FD04F4B009AB14626
:100790009B5CA3420DD043462B3B5A425A410092E8
:1007A000C7E7561C062AF0D102204042CBE70123BE
:1007B0009946009B01330093052BBAD10023A8462C
:1007C000029C039D009401951D003D4E3B4F736AB2
:1007D000434544D3B26A00998A4201D243453ED090
:1007E0000026AA46009C019D00230093334B0294EF
:1007F000039599464546324F7B6AAB4205D3BA6AA8
:1008000002998A429ED2AB429CD14B4610229B69F0
:100810001A42F1D11021294A93691942FCD1FF23D0
:10082000126813409846180004F0F6F943463A2B34
:1008300031D0303B092B00D984E700998C468A00DF
:10084000624452009B180093D6E71F4B009A9B5CB2
:10085000722BACD0002300930133994669E7102234
:10086000BB691A42B3D11021144A93691942FCD1D1
:10087000FF23126813409946180004F0CDF94B4647
:100880002C2B13D0303B092B00D95BE7AA0052195F
:1008900052009D189BE7002E00D153E75B4652465D
:1008A0001A60059B009A01201A604CE7AA46009C3A
:1008B000019D012698E7C046FFFFFF7F00800340AF
:1008C0000040054024770010847E001070B50E00B3
:1008D0002949CEB0009180210500284B284A4900C3
:1008E0000EA803F0C5FF274B274A2821009304A830
:1008F000330003F0BDFF280004A9FFF77FFD234B61
:1009000001220393FA232800DB0003A9FFF7E2FD8D
:10091000002824D16B4638229B181878190000282B
:1009200009D020241A4B01319A691442FCD1186075
:1009300008780028F7D10A2020241649144B0131E9
:100940009A691442FCD1186008780028F7D1124B3C
:10095000012203932800114B03A9FFF7BBFD3300CD
:100960000F4A282104A803F083FF280004A9FFF7F9
:1009700045FD4EB070BDC046650600008C7E00107F
:100980002C770010C90600007C77001090770010CB
:1009900000800340A87E0010A4770010B80B000070
:1009A0009477001070B5C0B005000E001623C82162
:1009B000254A0EA803F05CFF7F23244A28210093D8
:1009C00004A8330003F054FF280004A9FFF716FD24
:1009D0001F4B01220393FA232800DB0003A9FFF732
:1009E00079FD002824D16B4638229B18187819000D
:1009F000002809D02024174B01319A691442FCD1F8
:100A0000186008780028F7D13C2020241249114BA7
:100A100001319A691442FCD1186008780028F7D196
:100A20000E4B0122039328000D4B03A9FFF752FD43
:100A300033000C4A282104A803F01AFF280004A957
:100A4000FFF7DCFC40B070BDB07700107C77001081
:100A500090770010008003406C7E0010A477001097
:100A6000B80B00009477001070B530498CB00400CA
:100A7000FFF7C4FCC8232E4D012220009B0004A9CF
:100A80000495FFF727FD2B4E002841D120002A496D
:100A9000FFF7B4FC962301229B0004A920000495D3
:100AA000FFF718FD5023254A202104A803F0E0FE9B
:100AB00004A92000FFF7A2FC02A902222000204B7B
:100AC00002954E60FFF706FD01302AD00A231D4A29
:100AD000202104A803F0CCFE200004A9FFF78EFC1F
:100AE000C82301229B0001A920000195FFF7F2FC19
:100AF00020001549FFF782FC962120004900FFF7EE
:100B00009DFC5021114804F013F901200CB070BD78
:100B1000C823012220005B0004A90496FFF7DAFC39
:100B2000B4E70B4804F086F80020EFE71C780010CB
:100B300028780010307800103C7800104C780010B5
:100B4000DC0500008478001094780010A478001070
:100B500060780010F0B5C64600B50500A6B00F20BD
:100B600000F04AFBD0238022E1211B0612025A62C8
:100B700049025A61414804F0DBF864212800FFF77C
:100B80005DFC3F4B0A2698463E4F01E0002C1ED0EC
:100B900041462800FFF732FC962301225B0006A99C
:100BA00028000697FFF796FC013E0400C82001F0DC
:100BB0001FF9002EEAD1002C09D0E1213248490268
:100BC00004F0B6F8002026B080BCB846F0BD2F482F
:100BD00004F030F828002E49FFF710FCFA23012218
:100BE0005B0006A928000697FFF774FC2800294936
:100BF000FFF704FCFA2301225B0006A928000697F0
:100C0000FFF768FC244C254A2100254804F090F8A1
:100C1000244B254A8021009306A8230003F028FED8
:100C2000280006A9FFF7EAFB03A90A001F4B51CBD6
:100C300051C203222800194BFFF74CFC002808D0B2
:100C4000012818D0022814D019491A4804F070F865
:100C5000B8E7194803F0EEFF28001849FFF7CEFB6C
:100C6000C82128004900FFF7E9FB2800FFF7FCFE38
:100C7000A9E71349E9E71349E7E7C046E47800101C
:100C800004790010287800100879001058790010B5
:100C900068790010707900101C850010204E00004B
:100CA0007C79001010850010AC7900102C850010A4
:100CB000CC780010C0790010E0790010F8790010AD
:100CC000DC780010D4780010F0B5DE4657464E466A
:100CD0004546E0B5C24CC34BA544029301235B4299
:100CE0009B46002304009A465B4608935346200027
:100CF000099309AABC4B08A9FFF7F6FC831C2DD069
:100D00000128F1D18023099A661CDB009A4233DC6A
:100D100031002000B54BFFF78BFC051EE4D0042802
:100D200017DD05223000B24906F0D4FB071E10D1B2
:100D30002A002021300006F0E3FA8046002808D07F
:100D40000123434499467319994502D243782F2BC6
:100D500014D020000899FFF725FEC5E7029803F09C
:100D600069FF2000FFF780FE0028BDD1A14803F0F5
:100D700061FF2000FFF712FB1A00C9E74B469A1BE0
:100D800020214846AA1A06F0BBFA002844D04B4658
:100D9000C31A0393062B38D907224846964906F012
:100DA00099FB00284AD1039F072F3AD043461022CF
:100DB0001B7A484693432F3B5A4253418F49DBB23B
:100DC0000622049306F086FB43425841C3B20593C2
:100DD0000B2F31D90C224846894906F07BFB434250
:100DE0004341DBB2049A089F002A36D0D0258026E2
:100DF000FA202D063602AE61400000F0F9FF3900FE
:100E000020006E61FFF762FD6EE7039B0497062BDF
:100E100009D0039B012B9CD120000899FFF756FDB8
:100E200062E70123049306224846744906F052FB08
:100E300043425841C3B205930023D3E706224846F4
:100E40006E4906F047FB43425841C3B20593039BEA
:100E500004970B2BBED80023089F059A002A34D193
:100E6000002B00D175E750AD2A00664B43CB43C23F
:100E700043CB43C243CB43C203CB03C2198828A848
:100E800011809B78282193702E235F4A00933B00AA
:100E900003F0EEFC200028A9FFF7B0FA5B4B01221B
:100EA0001793FA2320009B0017A9FFF713FB0028D4
:100EB00000D134E13B002821554A28A803F0D8FC92
:100EC000200028A9FFF79AFA0EE72A002F21300008
:100ED00006F016FA50AE0500C02200213000002DA9
:100EE00000D117E1454500D314E102F0ADFA4346C5
:100EF0005A1BBF2A00D9BF222900300002F0AAFAEB
:100F000030003F2106F036FA061E55D0451C05225A
:100F10002800404906F0A4FA002800D011E1B51DD0
:100F20002B78002B00D134E129002A00A946A446E1
:100F3000681C0BE02B2B00D10B3B804601320B7061
:100F4000137801300131002B00D1CFE0252BF1D1F6
:100F500056783400303C092C07D9113C052C03D9B4
:100F60003400613C052C1ED80A3430256D42A84659
:100F70009678B0444546092D00D8B5E041256D422C
:100F8000A846B0444546052D00D8C6E061256D420F
:100F9000A846B0444546052D02D8573E651C05D1EC
:100FA00080460132CBE701246442DEE72401264378
:100FB0008046F3B20332C2E7174B17AE179304AA69
:100FC0004D239446307863449946002859D0D02662
:100FD0008025F023360698462D020397049429E0D5
:100FE000FCFDFFFF047A001060EA0000B80B00006F
:100FF000807A00103C7A0010887A0010907A0010F5
:10100000987A00101C7B00107C77001090770010FD
:1010100094770010A87A0010534F5300B42040007A
:1010200000F0E6FE01239C46E1444B46013B187864
:10103000002824D0202852D006F02AF930382A2857
:10104000F0D8554B8000C458002CEBD0200006F09F
:1010500029F90028E2D02718B561207801342E380C
:10106000431E9841434640421840783000F0C0FE8D
:101070007561BC42D2D0782000F0BAFEECE7039F45
:10108000049C464B07AD1A88A0212A809B78444ACD
:10109000AB7028A8022303F0EBFB6423414A302104
:1010A00000930BA83B0003F0E3FB20000BA9FFF724
:1010B000A5F93D4B01220A93FA232000DB000AA97F
:1010C000FFF708FA002846D03B003021374A0BA82A
:1010D00003F0CEFB20000BA9FFF790F904E6D22025
:1010E000800000F085FE9DE7464657E74D464646A0
:1010F00064460023984633702B78434500D15BE764
:1011000017AE40222900300006F092F840234246F4
:10111000F25454E702F098F9F2E6373E3EE7280031
:101120002021234A0578002D05D00130936919420A
:10113000FCD11560F6E720001E491F4AFFF76AFA46
:10114000B8E6042228001D4906F08AF9002800D0DC
:10115000E6E6751DE4E62021154A28A80678002E4B
:1011600005D0013093691942FCD11660F6E72800DA
:1011700020210F4A0578002D05D0013093691942CE
:10118000FCD11560F6E720000A490D4AFFF742FA44
:101190009AE72E00ADE7C046C07D00104C7B0010E2
:1011A000B87A00107C7700109077001094770010C8
:1011B00000800340A4770010DC050000B07A001026
:1011C000B80B0000094A83009A1810B51468402231
:1011D000544080322240064CC000A44663441A604A
:1011E000044B9C466044416010BDC04604C00140B1
:1011F00004D00140004001400123D0228340120668
:1012000093629361094A83009A1811684022514001
:1012100080320A400649C0008C4663441A60054B80
:101220009C460523604443607047C04604C00140AB
:1012300004D00140004001408023DB051868000F06
:101240007047C0460FB400B5084883B003F0F2FC05
:10125000049B002B07D005A91800019103F02EFB79
:10126000034803F0E7FC012003F040FB487C00103A
:10127000587C001070B5EFF3108C72B60D4D2B68D2
:10128000002BFCD0BFF35F8F0724CB08C618C05CCF
:1012900001230C40A3401C000440034207D1184323
:1012A0003070BFF35F8F2C608CF3108870BD10001E
:1012B000FFF7C8FF2C0100D0F8B54746CE46884658
:1012C00080B5EFF3108C72B61C4D2C68002CFCD04E
:1012D000BFF35F8F9A4222D807210126894602E098
:1012E0000132934218D34D4637001540AF40D40821
:1012F0000119045D2742F3D110003C430C70BFF389
:101300005F8F00220D4B1A608CF3108800280EDBD3
:10131000C0BCB946B046F8BD01204042EFE7BFF37C
:101320005F8F00232B608CF31088012040424346DE
:10133000002BEDD00898FFF785FFC0462C0100D0A8
:10134000044A1078431CDBB2172B00D9102313700A
:101350007047C046700B002010B5064B064C82B09B
:101360000100009318221F232000FFF7A5FF02B001
:1013700010BDC0465C7C0010181700200021044BF3
:10138000044ABFF35F8F02C39342FAD17047C0464D
:10139000000100D0800100D0054B064A1360064AC8
:1013A000136053609360D36013615361936170471E
:1013B0008080808000E400E004E400E01F23184007
:1013C0001E3B8340002905D0C021044A49005350E8
:1013D00013607047802201498B50FAE700E100E07A
:1013E00001228240034B1B6813405A1E9341D8B21E
:1013F0007047C04600E100E001238340014A1360CA
:101400007047C04600E200E0064B10309B68800049
:10141000C358054A00209B1A2F229A424041C0B26D
:101420007047C04600ED00E0740B002070B50D0061
:10143000EFF3108672B60F4A1368002BFCD0BFF38F
:101440005F8F0D4B10309B6884001B590B4A9342F1
:1014500003D09D4201D001F06BF8074B9B681D51F2
:10146000BFF35F8FBFF35F8F0022024B1A6086F3DA
:10147000108870BD240100D000ED00E0C101001013
:10148000F0B557464E46DE464546E0B585B0060007
:1014900000911700EFF3108B72B66A4A1368002BA5
:1014A000FCD0BFF35F8F0025674B5D579A46002D38
:1014B00000DAA9E06B00654C01935B199B0098462C
:1014C000A146C1444B4652469B7910361370604B7F
:1014D000B6009B6899590B1B2F2B33D95D4B994252
:1014E00000D0ACE0019B42469C465B4B6544AD009E
:1014F00063535A4B0232A218043B9B1A1B05584AED
:101500005B0D651913436B80564B0121AB80FF23A4
:10151000AB71009BEF71AB604B460B4319004C4B1A
:101520009B689951BFF35F8FBFF35F8F0022454BDC
:101530001A608BF3108805B0F0BCBB46B246A946D2
:10154000A046F0BD01200A008243D3798C46BB42FD
:1015500031D84546130044491B1B5B415943090DD3
:101560003D4B63533D4B02356519043B5B1B1B052B
:101570003B4D5B0D2B43AA464D466B800425AC4684
:101580005546E044131F44441B1B1B055B0D1D43C4
:101590004B46997100999D8099604946DF71334BA4
:1015A00001431360BBE75800C01880002018C179C0
:1015B000B9422FD902000623D356002BF3DA029347
:1015C0002B4B61460393131D9A4604235B429C46B2
:1015D000E14450464B461B1A1B055B0D9C46204BB5
:1015E000957198466346404603439380019B5A1980
:1015F0009200039BA418A380029B1C4AA371009B2A
:101600002260E771A3608AE700F092FF002553464D
:101610005D574FE7908802934005131D9A460315C6
:1016200061469C464046D444634604302018181A4C
:10163000E0230005400D1B0218430390C5E700F0AE
:1016400077FF4FE7240100D0D11C0020740B00204D
:1016500000ED00E0C101001000A1FFFFA40B00207D
:1016600000E0FFFF01BDFFFFAAAA0000014880477C
:1016700001BD0000F0B5C646012600B50643EFF3F4
:101680000584EFF3108C72B61C4A1368002BFCD053
:10169000BFF35F8F1A4FA400BB681A4D1B5902009D
:1016A000984619490023521B52415143090D2A0003
:1016B00049B2B04515D0062414578C4215D00133D9
:1016C0000C32042BF7D1114B1A7819708271BFF3C9
:1016D0005F8F0022094B1A608CF3108880BCB846DB
:1016E000F0BDBB680A4A1A51EDE75A00D3189B00B7
:1016F000ED18FF23AB71074BAB80E4E7240100D06A
:1017000000ED00E0740B0020AAAA0000D11C00200C
:10171000C101001001BDFFFF10B5084B084C82B09D
:1017200001000093002205232000FFF7C5FD0028DB
:1017300001DB1F23181A02B010BDC046787C0010D0
:10174000D51C0020024B9C46614489000160704713
:101750004000003470B5114C114DAC421CD2FF2634
:101760000BE0FFF7EDFD01002000FFF7EBFFA68087
:10177000BFF35F8F0834AC420ED22368002BF0D148
:10178000FFF7DEFD01002000FFF7DCFF2671BFF34D
:101790005F8F0834AC42F0D370BDC046380C0020D7
:1017A000400C002010B50400FFF7CAFD0100200026
:1017B000FFF7C8FFFF232371BFF35F8F10BDC04643
:1017C00010B504000120FFF7C7FD034BC3189B00B1
:1017D0002360BFF35F8F10BD40000034034B9C4675
:1017E000614489000160BFF35F8F7047400000349F
:1017F0000A4B1968EFF3108072B60A68002AFCD011
:10180000BFF35F8F1B68BFF35F8F00221A6080F306
:10181000108840BF002000217047C046AC1C00204B
:10182000F0B5DE4657464E464546E0B587B0EFF385
:101830000583032201251A40954091008B46B24B47
:1018400003925C58B14B02951D60B14B0493029B0F
:10185000B04843630823E55E002D38DAA3881BB245
:10186000002B00DBAEE0A379002B00D0EFE00823D3
:10187000E55E002D21DB6B005B196269DB00D3188C
:101880009E68DD68731C01D16B1C0ED0A14801005D
:101890005944826A0B69B71A9B1A9F4215D30123D8
:1018A000026A039883401A420FD09A4800F04AFB1C
:1018B0008D4202DCCBD18642C9D940BF07B0F0BC13
:1018C000BB46B246A946A046F0BD0E61EDE762698F
:1018D0006B0090465B19DB00984443469E68DF68C6
:1018E00000F030FB8F42B9DC00D1FFE0002F00DABE
:1018F000E4E04246434652691B699146049A93428A
:1019000000D1D5E042460821605E52880004494675
:1019100010439847009001910099019A0B00100024
:10192000134300D1CAE013000A00B61A9F410028F1
:1019300006DB784800F006FB009E019F36184F41F9
:1019400043469E60DF6000229A5E002A00DA85E747
:10195000530099186069C90041189A468B68C96894
:101960009946B94200DD79E702D1B34200D975E763
:1019700008239C46A444059565462281A446534607
:101980002C0006E053009918C90041188D68C968F9
:10199000A9469B18DB00C318B94206DC00D1AFE0B2
:1019A0001C000023E25E002AECDA230064469C4619
:1019B00043461A806346059D1D80A3881BB2002BF9
:1019C00000DA50E72269EFF3108172B61368002B3A
:1019D000FCD0BFF35F8F0123A7885B42A3803FB297
:1019E0002369BFF35F8F00221A6081F31088002FF4
:1019F00000DA38E7230008332200984666697B0046
:101A0000DB19DB00F318996840468C460824115F07
:101A10009A46DD68002907DA0EE0AB4244D0002385
:101A2000E15E2000002906DB4C006418E400341954
:101A3000E368AB42F1DD5346078000201F5E19804A
:101A4000002FDCDA1400A379002B00D10FE700236C
:101A5000A37127000823E15E08374B1C00D12CE757
:101A60000D00A046666902E007004B1C1AD04B002F
:101A70005B18DB00F0180A008C46F15E43881BB24D
:101A8000002BF1DA01235B42DC178360C460AA42B9
:101A900005D0434639801B89038043461A81654639
:101AA0004B1CE4D14446E4E6A3686345B7D9C2E7DA
:101AB0004B4648461B69984700281BD143461B8864
:101AC00022692381EFF3108372B611680029FCD0DC
:101AD000BFF35F8F414662880A8022696580BFF349
:101AE0005F8F0021116083F31088B7E6864200D82B
:101AF000FCE6B3E64B461A685B68009201930BE77D
:101B0000B14500D84CE750E7901B00203C700540E1
:101B1000211800100040054070B51D4C2369002BB2
:101B200004D00A211B48FFF70DFE70BD1A4D03219A
:101B3000280000F0FDF9E560FFF702FC174B626931
:101B40009C4603232370D0231B061B6860446370EC
:101B5000134B8000A36001235B42A380103363809A
:101B6000104B2061138001339BB218320F2BF9D137
:101B70000D4B0320DC600824074B0C491C62FFF767
:101B800055FC01210320FFF719FC094B1C60C8E735
:101B9000BC0B0020AC1C002000400540400000347D
:101BA000FFFF1000FFFF0000901B00202118001015
:101BB0003860054000487047BC0B002070B501003C
:101BC0000469EFF3108C72B620680028FCD0BFF3D4
:101BD0005F8F02200D5E4C6968004019C000241818
:101BE0000869002D36DB26884E80BFF35F8F002604
:101BF00006608CF31088E3606388049801332061E9
:101C00005B0405985B0CA26060611A1C002B1FD05E
:101C100093B22804628018430A69EFF3108C72B6FD
:101C20001368002BFCD0BFF35F8F8B8823808D80DF
:101C30000B69BFF35F8F00221A608CF310880B785A
:101C400001329A40CB6808498C4663441A6070BDE3
:101C50000122DDE7BFF35F8F002303608CF3108860
:101C600001204042F3E7C0463C20000070B582B03E
:101C70001D0008AB1B7806001400002B07D100F0F4
:101C800069F922002B00121A8B41002B0ADB079BFB
:101C900022000193069B300000932B00FFF78EFF7C
:101CA00002B070BD0020FBE710B543890A149342CF
:101CB0001ADD53009B184269DB00D3180469EFF367
:101CC000108C72B62268002AFCD0BFF35F8F5A884E
:101CD000090494B2090C8A4208D00369BFF35F8FEC
:101CE00000221A608CF31088002010BD802212029E
:101CF00014435C80012302698371BFF35F8F00216D
:101D000011608CF31088044902788C469340C268B5
:101D1000012062441360E8E73C20000040787047EF
:101D2000F0B506000F0006246442E517C646A41964
:101D30007D4100B582B08D4214D811D000F00AF96F
:101D400022002B00121A8B41002B15DC002B44D0F3
:101D50003000390000F03CF902B080BCB846F0BD5C
:101D60008442EBD90024002500F0F4F822002B0077
:101D7000121A8B41002BE9DD00F0ECF822002B0059
:101D8000121A8B41002B0ADB00230193144B220013
:101D9000009314482B00FFF711FF0130D8D0A04664
:101DA00029000024104A1148536A994204D8956AC0
:101DB0004545CDD29942CBD10568EFF3108C72B670
:101DC0002B68002BFCD0BFF35F8F0368BFF35F8FDE
:101DD0001C608CF3108820BFE6E7002AB8D0CBE760
:101DE000F1170010BC0B002000400540AC1C002087
:101DF00070B5060000F0AEF8FA2204000D000023D2
:101E000030000021920001F0B9FA0019694100295F
:101E100002DA012002494042FFF782FF70BDC0464E
:101E2000FFFFFF7FF0B557464E46DE464546E0B51C
:101E300006000F0085B0EFF3058399468B46002B13
:101E400012D0384900204B6ABB4206D38A6ADB1B9A
:101E5000591E8B41B2424041184305B0F0BCBB460D
:101E6000B246A946A046F0BD2F4B9A46DB6898467D
:101E700053461B784046039300F064F84246039BA8
:101E8000040004339B009B580D001B1A39003000DE
:101E9000001BA941894510DC0DD020BF214A00203C
:101EA000536A5B45D9D3926ADB1B591E8B41B24200
:101EB00040411843D1E78342EFD900F04BF832009C
:101EC0003B00121A8B41002B1ADB00230193174BA6
:101ED0003200009350463B00FFF770FE011E0FDDFD
:101EE000104B5A6A5A451BD39B6AB34216D35046CD
:101EF000FFF7DAFE0B4A0020536A5B45ADD3D2E709
:101F0000084A0020536A5B45A7D30020926ADB1B76
:101F1000B24240415A1E934118439EE75A45E6D1CA
:101F200020BFE4E700400540BC0B0020F117001083
:101F300010B5024A0248FFF79DF910BD947C0010CD
:101F40001C1700200300416A0A00986A596A8A42F5
:101F5000FAD17047034B596A0A00986A596A91424C
:101F6000FAD170470040054070B504000D00174AD3
:101F7000536A1900966A536A8B42FAD130001900ED
:101F800024184D41AB4216D813D0104A2B00526A88
:101F9000954203D90D494A6A9A42FCD39A4207D125
:101FA0000A4A02E0516A994202D1916AA142F9D3E8
:101FB00070BDA642E9D9054B5B6A1C005A1CEFD0E4
:101FC000012301246442E5175B42E3E7004005403A
:101FD000064A536A9942FCD807D1044B02E05A6A78
:101FE000914202D19A6A9042F9D870470040054068
:101FF000F8B5040006200D0000F092F92900C00099
:1020000000F0B2FB0130C30921D01F4A934233D9FB
:1020100000231E4A1E4F6262A362256BEB071DD58B
:102020001C4B1D4AE3181A60666AA36A0620B601B3
:10203000F61800F075F9194900F096FBB602010098
:10204000300000F091FB0021FFF78EFF06E04027F3
:1020500001226262A362256BEB07E1D40022E36AEE
:102060000F4B0620E3181A60256300F059F9390078
:10207000800000F079FBF8BD4006800E9F011A0039
:102080003F180300E5E7C046FEFF0000FFFF000029
:10209000C0FF3F0030300000010300004E0E000082
:1020A0002C10000070B5040006200D0000F038F977
:1020B00000282CD0164B1749E3185A1E9341802252
:1020C000120494465B429B0D134A9B0563441360C4
:1020D000124A136018000A689043FBD10C4B104A57
:1020E000E31859424B4180215B004900995220007E
:1020F0002900FFF77DFF7023E26A5A400E33134038
:10210000084AA2181360084B23630323A36470BD1D
:102110000080FCBF08C0004000E0004000F000402C
:10212000B81C00202C100000010300000539013A02
:10213000F8B5D2004C0105001443002B06D0013B3A
:102140005A4253419B00234302241C432E6BF30746
:1021500008D46E23EA6A624013400E4AAA1813603C
:102160002E63F8BD0C4B0D4AEB181A606F6AAB6A10
:102170000620BF01FF1800F0D3F8094900F0F4FA77
:10218000BF020100380000F0EFFA0021FFF7ECFE7B
:10219000DFE7C0462C1000003030000001030000D3
:1021A0004E0E0000F8B5066B04000D01F30708D4CD
:1021B000E36A5D4010231D400D4BE3181D6026634C
:1021C000F8BD0C4B0C4AC3181A60476A836ABF01FA
:1021D0000620FF1800F0A4F8084900F0C5FABF0275
:1021E0000100380000F0C0FA0021FFF7BDFEDFE774
:1021F0002C10000030300000010300004E0E0000E3
:10220000F0B5DE4657464646C0B51F00334B440086
:102210009C462418A400644416006368089A8B4600
:10222000934200D26260031FDBB29846012B2FD984
:10223000C02380229B01E31812011A60284B8500FD
:1022400059599A4600291AD17301E0262268534051
:102250001E40802342465B01E3181E60012A2FD9ED
:10226000802380229B01E31812011A60089B63609F
:1022700053465F51E0BCBB46B246A846F0BD586924
:1022800000F072FA013043001B18033BFDD2DBE77C
:102290005B46012BCCD1C02303229B01E3181A60BB
:1022A000023AA3681A42FCD07301E0262268850036
:1022B00053401E4080230A4A5B019246E3181E6089
:1022C0005A462168514003220A401A6001235A46A7
:1022D0009340A2681342FCD0C2E7C0460080004091
:1022E00020170020F0B583B005000E0018000899F3
:1022F000170000F039FA089A0300140231003A007E
:1023000028000094FFF77CFF03B0F0BD10B58024D7
:1023100082B064000094FFF773FF02B010BDC046A6
:10232000014B8000C058704720170020F8B504000A
:1023300021481E0017000D0000F016FA01003800B9
:1023400000F012FA069B36041B031E432368002B81
:1023500020DB1A4B1A49E3185A1E9341802292013E
:1023600094465B421B0B174A1B0363441360164AD7
:1023700013601F000A689743FBD1144B2560E218D5
:102380002123A06013602368002BFCDA0823E66099
:102390001360F8BD3F2322681340AB42D9D1A36834
:1023A0001B051B0D8342D4D1EE22E368D2021340F9
:1023B000B342CED1EDE7C046001BB7000040FDBFE1
:1023C00008C0004000E0004000F000400430000081
:1023D00010B580241C4BE4051C6000281AD0012392
:1023E0001A4C18431A4BDC611A4C44401C62596267
:1023F00098628021144BC905196017481749086075
:10240000E021C9041960002A07D18022144B12066A
:102410001A6010BD0E4BD861EBE753019B1A9B006D
:102420009A18802312015B049A4209D213000D49C5
:102430000B60074B5A608022094BD2051A60E8E70F
:10244000094B1A00F3E7C04600B00540D3C007B0FF
:10245000008005402D3FF84FFCFF0100082001409F
:1024600000A00540801B0020FFFFFF008023024AE0
:102470009B000B43D362704700800540002310B5DA
:102480000100988A1B8B984710BDC046162310B5D3
:102490000100188802331B88984710BDF8B54746DD
:1024A000CE4680B50F1E18D014239946043304007D
:1024B0000025012698464B461888434621681B880C
:1024C000984701C4431E984101350640AF42F2D1FE
:1024D0003000C0BCB946B046F8BD0126F8E7C0469A
:1024E000002370B504000D00988A05491B8B98479E
:1024F00003000020002C01DB0130A0402900984798
:1025000055420000AA23064A1B0113608D235B007D
:10251000D3600449044B19605368002BFCDA704700
:102520000040024000B0FA00006002407047C04620
:1025300010B50148FEF786FEB87C001070B5074D57
:10254000074EB54209D20024013E761BB60808CDDD
:10255000984723000134B342F9D170BD8076001052
:10256000BC760010054B064A06491A60064A074B1E
:102570001A6010000B689843FBD1704700E00040E0
:10258000BFCDFBFE08C00040FE7F3C0000F00040D5
:10259000044BDB6C002B03D18022034BD2021A6068
:1025A0007047C046000011504C201150044A054BA2
:1025B0001A60054A1368DB018033FBD17047C046BF
:1025C000FFFFFF0100F0004008C000404022034B25
:1025D0009A675A671A67DA667047C04600F001408A
:1025E00010B5FEF7CBFE10BD0C4B0D4970B55D1A52
:1025F000AC1022000B4E302C00D93022300092005B
:1026000000F028FFBC2D05D8074A7519013404C510
:10261000302CFBD1054B9E6070BDC046C001001040
:102620000001001000000020C101001000ED00E0DA
:10263000002310B5294C82B0A367FFF763FF012286
:10264000274B1A60636C012BFCD10322254B1A60C7
:10265000224A936B012BFCD1013300930121224AC2
:1026600022480433FFF762FE052301210093204A2C
:102670002048FFF75BFE0022022104201E4BFFF7DB
:1026800045FE0022012105201C4BFFF73FFE0022E2
:10269000002107201A4BFFF739FE002200210820F5
:1026A000174BFFF733FE8023DB000093002200214D
:1026B0000920134BFFF716FE0022104B00210620C5
:1026C000FFF724FE0420FFF72BFE0E4900F04CF824
:1026D00001000020FFF7CAFE02B010BD00800040DC
:1026E0003CB0004030B00040002F685900800240EC
:1026F000008C864700C00240001BB700405973079A
:10270000006CDC0240420F0001480421014B1847D5
:10271000E00B00209D240010124A936F9B0815D2F5
:102720009066D166002905D0FFE7FFE7FFE7516F0C
:10273000106F704704B580210906C2175140002868
:1027400000D0C84304F064FF002104BDF0B5146E4E
:10275000556E576F166FFFF7E3FF146655665767A0
:102760001667F0BD000000D0114A936F9B0813D28A
:1027700010665166002905D0FFE7FFE7FFE7516FBC
:10278000106F704704B5002801D00020C04304F04A
:102790003FFF002104BDC046F0B5146E556E576F63
:1027A000166FFFF7E5FF1466556657671667F0BDAD
:1027B000000000D094464A4A926F9208624601D2C5
:1027C00028E0C046F0B5464E346E756E776F366FB2
:1027D00000F020F89446424A14665566576716671B
:1027E0006246F0BD94463E4A926F9208624601D21C
:1027F00054E0C046F0B53A4E346E756E776F366F62
:1028000000F04CF89446364A1466556657671667CA
:102810006246F0BD002B24DB11D000293EDA00B562
:10282000C943404200D1013100F038F8C943404269
:1028300000D10131DB43524200D1013300BD002AF7
:10284000EBD1002801D1002905D00020C90FC9070C
:1028500001D1C043410800B504F0CAFE00220023A4
:1028600000BD00B500290ADBDB43524200D1013331
:1028700000F014F8C943404200D1013100BDC94302
:10288000404200D10131DB43524200D1013300F01C
:1028900005F8DB43524200D1013300BD002923D1AA
:1028A000002B18D1002A0CD0BC460D4F38667A6632
:1028B00000210023FFE7FFE7FFE77A6F386F6746E5
:1028C0007047002801D00748010000B504F090FED1
:1028D0000022002300BD02000B00002000217047F1
:1028E000000000D0FFFFFFFF002B00D0BFE0130C63
:1028F00028D1002AE7D080B4114F39667A66FFE705
:10290000FFE730B4040C7B6F396F1B0423433B6635
:102910007A66FFE7FFE7FFE7C04684B27B6F3D6F53
:102920001B0423433B667A66FFE7FFE7C0460023AC
:102930002C042D0C7A6F386F00196941B0BC7047B8
:10294000000000D0F0B594460025140E01D112020B
:102950000835140F01D112010435940F01D19200F2
:102960000235D40F01D152000135D40B0134254F6B
:102970007C66254C3C660E0C93B2FFE7FFE7FFE751
:102980003C6F6643360C7703BE467343DF0B5B0434
:10299000C01AB941130C7343DB18C91ACE08664339
:1029A000360CB64493B273431F0F1B01C01AB941D2
:1029B000130C73431F0B1B05C01AB941860D8F0200
:1029C0003E436643360C092D24DB520A7243801ABB
:1029D0007703460A6643360C16235B1BDE40DF4056
:1029E000BF1964466643821B7046043506330100F6
:1029F000D940A840C01900D30131A24206D2002319
:102A0000F0BD0000000000D0FFFFFFFF121B0130EF
:102A1000F3D3F1E709277F1BFE406446A2B272435D
:102A2000801A00D20139220C7243130C1204821A4C
:102A300099410B007046043513370100F940A84056
:102A4000801900D30131002B02D1A2420AD2F0BD7D
:102A5000013000D30131121BFAD2013BF8D1A2425E
:102A600000D2F0BD013000D30131121BF7E7F0B501
:102A70001C0C00D080E00CB400251C0A04D11B0201
:102A8000160E3343120208351C0B04D11B01160F1E
:102A90003343120104359C0B04D19B00960F334342
:102AA00092000235DC0B02D192185B4101351C000B
:102AB000971864410134464F7C66464C3C660E0CC8
:102AC000FFE7FFE7FFE7C0463C6F6643360C77033E
:102AD000BE4697B27743C01B00D20139C01B00D25B
:102AE00001399FB27743C91BC91B170C77437E047A
:102AF000FF0B801BB941CE086643360C0C2D33DB2F
:102B0000B644120B1F053A431B0B97B27743C01B09
:102B100000D201399FB27743C91B170C77433E049B
:102B20003F0C801BB941860D8F023E436643292727
:102B30007F1BFE400C3D7746AF40BF1930BCA2B2B0
:102B4000ABB272437343801A9941220C7243130C47
:102B50001204801A994102000B000137001BA941A1
:102B6000F9D2781E0021F0BD0C277F1BFE4077466E
:102B70007F0BAF40FF19E0E700245D1C07D0144F26
:102B80007D663966FFE7FFE7FFE7FFE73C6F95B239
:102B90009EB265436643401BB141150C1E0C654354
:102BA000664336042F0C3E432D04401BB14199422D
:102BB00004D202000B0020000021F0BD01D19042A0
:102BC000F7D3801A994101349942F2D3F6E7000015
:102BD000000000D0FFFFFFFF48404140484018B4CC
:102BE0001B4B5B68FC46019308BD04DF4F2E0010B1
:102BF00018B4174B1B68FC46019308BD00DF592E23
:102C000000109446134A926F920809D2624618B493
:102C10000F4BDB68FC46019308BD0CDF113100103F
:102C20000C4AF0B5146E556E576F166F6246FFF77B
:102C3000EEFF084A1466556657671667F0BD18B46C
:102C4000034B9B68FC46019308BD08DFB52F0010BD
:102C5000C80D0020000000D0FFB550404240504059
:102C600059404B40594000E0FFB5154F4C00640DF2
:102C700003D0BC4204D10C0314D80020090D09056F
:102C80005C00640D03D0BC4204D11C030AD80022AE
:102C90001B0D1B0501264B4009D44B4003D58B422D
:102CA00000D18242FFBD9942FCD19042FFBD0B434F
:102CB000DB1803431343F5D0C9434918FFBD000097
:102CC000FF07000000B5FFF7CFFF804100BDC04601
:102CD00000B5FFF7C9FF01D9002000BD012000BDEC
:102CE00000B5FFF7B9FF01D9002000BD012000BDEC
:102CF00000B5FFF7B1FF804100BD012040054A004B
:102D0000121804D85A00121801D800207047012068
:102D1000704700000021002805D17047C1174840C6
:102D2000401AFAD0C90713B5064B1B6898470CBC6C
:102D3000441CA2401005120B0349091B0905194345
:102D4000114310BDA81B00201F04000010B54C004B
:102D5000620D8023D218DB00D21A5B057E2A10DDBB
:102D60009E3A13DACC170903490819435242D1405D
:102D7000640001341532202A05DAD040084360434C
:102D800010BD002010BD0846604310BDC80FC0181C
:102D9000013810BD18B4044B5B6AFC46019308BDB2
:102DA00024DFC13200100000C80D0020132370B5CD
:102DB0001C78012C19D014DD1248FFF767FB0600C0
:102DC0001148FFF763FB114D80223100280000F00D
:102DD00041FB022C13D00E48FFF750FB0D4B18603F
:102DE00070BD0D4A094DAA64F5E7084D0A4A29004D
:102DF0002B00803104C38B42FCD1AA64EBE7064A66
:102E0000AA64E8E75344000053460000C80D0020C0
:102E10004C330000A81B00201D2E001007B5604693
:102E200001880A0A0230DF2AFAD1C9B2820804D323
:102E3000028840880004104300E00068014A5050B6
:102E4000039007BDC80D00200FB403BC0CBCF0B547
:102E50000124E407634000E0F0B50C0DCF0F661EBF
:102E60003605891B640503D3C943404200D30131B1
:102E7000640D03D0661CF60A07D0E41B00207F0017
:102E8000791C89078912803C24031D0DDF0F6E1EFB
:102E900036059B1B6D0503D3DB43524200D3013340
:102EA0006D0D03D06E1CF60A07D0ED1B00227F00CB
:102EB0007B1C9B079B12803D2D032F1B661B58D448
:102EC000A446202E46DA20371400BC401D00BD4029
:102ED000F24033412A4380185941CB0F05D0C943F2
:102EE000C043002264425041514162464D0D28D1F9
:102EF0000D0D07D100281FD0241940414941013A46
:102F00000D0DF9D0640006D3013000D30131002C3F
:102F100001D140084000013A0BD4941CE40A04D1CA
:102F200012051144DB071944F0BDD907204B1943A2
:102F300000E0D9070020F0BD0029DDD1002CDBD155
:102F4000F0BD0132C6074008CD0728434908002ECE
:102F5000E1D0D9E73C2E29DA203E40371400BC40AE
:102F600000D00124F24014431A00BB401C43D31785
:102F7000ACE7AC46202F08DA20360400B4400D0040
:102F8000B540F84039412843A5E73C2F0CDA203FF3
:102F900040360400B44000D00124F8400443080047
:102FA000B1400C43C117EAE710001900002494E770
:102FB0000000F07FF0B50C0D661E3605891BE60A91
:102FC0006405640D02D0651CED0A04D000200121C7
:102FD0000905803C2403A4461C0D671E3F05DB1B2E
:102FE000E70A6405640D02D0651CED0A04D00022D6
:102FF00001231B05803C24037740644497B484B2CA
:1030000096B27443070C7E43150C6F4380B268433D
:10301000361802D3012000043F183004350C001983
:103020007D41844688B29AB250430C0C62431F0C17
:103030007C438EB27E43921902D301263604A41932
:103040001604170C3618674101BC81B29AB251437D
:10305000040C62431B0C5C4380B25843121802D329
:103060000120000424181004130C401863412D188B
:103070005E410020474106BC88B293B258430C0C15
:103080006343120C544389B251435B1802D30121AC
:103090000904641819041A0C091862416D18564184
:1030A0000020474118BCF902720D1143F0026A0D6D
:1030B0001043ED020A0D03D16D1940414941013B16
:1030C000124E9B1B7600B3420ED26D0007D3013027
:1030D000002671416646354301D1400840001B057A
:1030E000C918E4072144F0BD0BDA013306D10130E1
:1030F00004D101314F0D01D04908F2E7E10700206A
:10310000F0BD013631050020EBE70000FF030000B1
:10311000F0B51C0D671E3F05DB1BE70A6405640D57
:1031200002D0661CF60A04D0002201231B05803C55
:103130002403D0252D060026F6432E661E096E6652
:10314000CE0FF619B44649004F0D02D07E1CF60A88
:1031500003D000200021403F3F033E1BB600B44493
:10316000013F7F05C91B49082E6F013676089C0276
:10317000950D25437543ED137543AD1301356D1062
:10318000F603761B0CB4CC02450D2C43A2B2B3B2AD
:103190005A43270C7B43350C6F43A4B26C431B1975
:1031A00002D3012424043F191C041D0CA4187D41E2
:1031B00024196D41009A91B2ACB26143170C7C4363
:1031C0002B0C5F4392B25A43A41802D3012212047B
:1031D000BF182204230C52187B41019C6C431B191D
:1031E000520ED9010A434401A01A81B2B2B251432E
:1031F00003145A43360C734387B27743D617D21958
:1032000000277E4136049B191704160C7F185E4177
:103210007316ED18F301002680337541A90F06D10E
:103220006400690AE8055B0A184309D22FE004220A
:10323000944480337541A90AA8059B0A184326D3F4
:10324000404149412404009A019B0D005543641BF1
:103250004343E41A95B286B27543170C7E43030CC0
:103260005F4392B25A43B61802D301221204BF1828
:103270003204330C52197B4152429C41002C02D43F
:103280000022013051414008CA071043490802B0EA
:103290006246D7079210084BD218084B9A4203D2C5
:1032A00012058918C919F0BD0020002A01DC390077
:1032B000F0BD01331905F5E7FD030000FE0700002E
:1032C000002200B5203200F004F8080000BD000024
:1032D00000220B150AD410B5944600F031F81414EE
:1032E000013400DA0021CB17144C204700200021C4
:1032F00070476244343A0CD40C2A07DA0400914037
:10330000904052422032D440214310BDD843D9438B
:1033100010BD203207D40C46944052422032114155
:10332000D040204310BD0800C917203203D45242B8
:103330002032104110BD1800190010BDF3320010EA
:103340000A0DCC0F531E1B05C91A520503D3C943DE
:10335000404200D30131520D03D0531CDB0A07D089
:10336000121B00206400611C89078912803A120335
:10337000014BD21A70470000FF0300005143434342
:10338000C9188C46110C83B24B4310B4040C614332
:1033900092B280B2504362431C041B0C001910BC53
:1033A00059411304120CC018514161447047000088
:1033B000132310B510481C78FFF768F80100012CA2
:1033C0000AD003DD80220D4800F044F80C48FFF7D6
:1033D00055F80C4B186010BD084C5422200000F02A
:1033E00039F823002100084A5433803104C38B424A
:1033F000FCD12262E261E9E753460000AC1B0020E9
:103400004C330000A81B00200D34001007B56046A7
:1034100001880A0A0230DF2AFAD1C9B2820804D32D
:10342000028840880004104300E00068014A5050C0
:10343000039007BDAC1B002001480421014B184735
:10344000F00B00209D240010014B1B681847000062
:10345000F00B0020014B5B6818470000F00B0020C8
:103460009A4200D2885470477047C046F8B5574614
:10347000DE464E464546E0B599460A9B07009A4609
:103480000D9B884693460B9C9B073CD10C9B9C4212
:103490003ED20C9B0B941E1B15000C005E442A00B0
:1034A0004B46013521002020B847B542F7D1A04650
:1034B0000B9C002C20D0454636195346321B013C4C
:1034C000185D29004B46B847002CF6D12B0035007B
:1034D00098460D9B9B070FD55B46EC1A0C9BA342AD
:1034E0000AD9464698462A004B463100202001342E
:1034F000B84701354445F6D32800F0BCBB46B24678
:10350000A946A046F8BD16001500002CD3D1E0E76F
:1035100016001500002CCED1EEE7C046F0B54546AA
:10352000DE4657464E46E0B585B09C4610AB1B784C
:10353000149F934698460F9C129E139DBB074DD433
:10354000002D43D1B44249D201233B4099460E9B02
:10355000013B9A46302304E0524601341355A642FB
:1035600001D9202CF8D14B46002B00D185E00E9BD1
:10357000013B99463023A54205D82FE04A46013445
:103580001355AC422AD0202CF8D1FB060DD57B0573
:1035900055D4A64264D0A54262D0119B102B51D0C5
:1035A000119B022B57D0202C32D1202301930E9B4C
:1035B0005A460093039763460295FFF757FF05B0FD
:1035C000F0BCBB46B246A946A046F0BD01233B4035
:1035D000994601233B422AD1B442B8D3FB061CD5FD
:1035E0007B05DAD4002CD4D1119B102B5DD0119B1C
:1035F000022B6DD0302301240E9A13704346002B0A
:1036000010D17B073FD52B260E9A631C1655CDE7AC
:103610002300013430260E9AD654202CC5D04346C0
:10362000002BEED02D260E9A631C1655BEE743469E
:10363000002B31D0013DB44200D288E797E7119BBF
:10364000102BB2D1BB0639D5202CAED058230E9A00
:1036500013550134A7E7202CA7D02300013408E03C
:10366000631E012CC0D0119A102A33D0119A022A5D
:10367000D0D162260E9AD65495E7FB06CDD57B05B0
:1036800000D486E789E723003E0700D48EE7202692
:103690000E9A0133165589E70C233B405A1E93417D
:1036A000ED1AB44200D252E761E7BB060ED478238C
:1036B0000E9A02241370302353709FE7202C00D100
:1036C00073E778230E9A135501346CE75823EFE71C
:1036D0006033EDE70E9AA61E91464E44BA0602D517
:1036E0005822327096E77822327093E7F0B5574649
:1036F0004546DE464E46E0B593B09B461CAB80CBBC
:1037000080461B78894692461E9D0993002F07D15B
:103710001022219B00249343219A2193520524D403
:10372000219B61229B0639D4D3B202AA1F2694465C
:103730000A3B00246644089308E03033DBB20134CE
:103740003355AF4211D3202C0FD007002900380089
:10375000FFF70AF8CBB20929EFD9089A0134944649
:103760006344DBB23355AF42EDD2219B5246069300
:10377000209B494605931F9B40460493099B039554
:1037800002930AAB009301945B46FFF7C7FE13B0A8
:10379000F0BCBB46B246A946A046F0BD4122C3E7F5
:1037A000F0B55746DE464E464546E0B595B09B46D9
:1037B0001E9B1F9D9A4620AB1B78229F0B9353465E
:1037C000239E089009910A922B4307D11022269B31
:1037D00000249343269A2693520530D4269A6123D7
:1037E000920645D404A91F228C46624490460A22C0
:1037F00052429146DBB299443B00002457469A4618
:103800000CE043463032D2B201341A55AE4215D8DC
:10381000AE422FD0202C11D007000D0052463300AD
:1038200038002900FEF7DEFFD2B2092AE9D9434663
:103830004A44D2B201341A55AE42E9D95746269BC2
:103840000A9A0693259B09990593249B089804934B
:103850000B9B039702930CAB009301945B46FFF71D
:103860005DFE15B0F0BCBB46B246A946A046F0BD11
:103870004123B7E7BA45CDD95746E0E7F0B55746FB
:103880004E46DE464546E0B593B01C9E1D9F8246DF
:1038900088469346994632003B0030003900FFF7D6
:1038A0002CFA002848D1012230003900CC4B52427A
:1038B000FFF71EFA00283FD1012230003900C94B22
:1038C0005242FFF7FFF9002836D1002200233000D2
:1038D0003900FFF7F7F9002800D0D3E106960797E3
:1038E000069807998023209ADB001A400F928022C5
:1038F000209D120115402A000D95209D0C00089076
:103900001D4230D10B00034355D1002A00D00DE2F7
:1039100006331E930225209B209A1D40022313424A
:1039200000D005E21F9B042B00D207E2043B0D935D
:10393000002304240A93FDE0209B00960197049342
:103940001F9B03931E9B02934B465A46414650468B
:1039500000F020FA0400200013B0F0BCBB46B246D1
:10396000A946A046F0BD069A079B1900114324D131
:103970000D9B002BCED000230A931E9B0A9A002495
:10398000934200DDF3E10022002330003900FFF70D
:1039900099F9002800D0B3E1209B934A02941A4081
:1039A0008023DB00134304931F9B0393069B079C18
:1039B00000930194C8E706231E938C4B60009C463D
:1039C000400D6044FFF7AAF9894A8A4BFFF737F99F
:1039D000894A8A4BFFF70CF92403894B240B2343B4
:1039E0000A900B91002208981900864BFFF7F7F810
:1039F000854A864BFFF723F902000B000A980B99C2
:103A0000FFF7F6F8FFF7A2F90A90FFF787F9804A67
:103A1000804B04000D00FFF712F900227E4BFFF7E8
:103A2000E7F8FFF793F97D4A7D4B29000E902000BF
:103A3000FFF705F904000E980D00FFF76FF9794ABA
:103A4000794BFFF7FCF802000B0020002900FFF77C
:103A5000C6F804000D0002000B0008940995FFF75A
:103A6000EEF804000D000898099902000B00FFF71A
:103A7000BFF80022109011916C4B20002900FFF735
:103A8000C0F800226A4BFFF7B3F802000B002000D9
:103A90002900FFF7B6F80022664BFFF7A9F80200ED
:103AA0000B0020002900FFF7ACF8089A099B0D00D5
:103AB00080210400C9050020FFF791F802000B00E7
:103AC00020002900FFF794F802000B0010981199CC
:103AD000FFF797F800224A4BFFF78AF8564B0E9CE7
:103AE0009C46644423050022FFF7A9F8069A079B29
:103AF00004000D00FFF7FCF8002800D09EE00A9BB0
:103B0000089409956333C62B00D8A7E00223209DB3
:103B100005241D400D9B002B00D0BBE01F9B052BF7
:103B200000D90DE106980799089A099BFFF769F8F3
:103B3000069007910022002330003900FFF7C2F8F9
:103B4000294B209A134004930D9B03931E9B0293D1
:103B5000002800D0F9E0069A079B414600920193A5
:103B600050464B465A4600F015F902002020209B93
:103B7000561C034059424B415B42184041464B465C
:103B80004530D0470523059300230A9A03930A334F
:103B90000293D30F01931300D2179B185340013C9B
:103BA0000494009332004B4641465046FFF79EFD79
:103BB0000400002D00D1CEE65B46C51A1F9BAB4228
:103BC00000D8C8E65646474622004B46390020201A
:103BD000B0471F9B01350134AB42F5D8BBE6C04668
:103BE000FFFFEF7FFFFFEFFFFFF7FFFF01FCFFFF8E
:103BF000FB799F501344D33FB3C8608B288AC63FDC
:103C00000000F03F0000F83F61436F63A787D23F99
:103C100071A379094F930A400000E03F1655B5BBE8
:103C2000B16B0240EF39FAFE422EE63F00002C4015
:103C30000000244000001840FF0300000A9B0022FF
:103C4000013B0A9320004E4B2900FEF7DAFF0A9B46
:103C5000089009916333C62B00D957E70223209DB2
:103C600004241D400D9B002B14D11F9B042B04D951
:103C7000002D00D17EE0042402250A9B002B00D0F9
:103C800050E757E780231B069C46BC4463460696D4
:103C9000079325E6089A099B1100194300D16CE6A9
:103CA00006980799374A384BFFF71AF8002808D0CA
:103CB000069807990022354BFFF704F8002800D03A
:103CC0005BE61E9B002B10D00F9B002B0DD01E9B84
:103CD000013B1E9300230D931F9BA342CDD9002DC2
:103CE0003DD0002302250D93C7E700230D931F9BB2
:103CF000A342C2D9002D32D0002302250D93BCE788
:103D00008020209B224A00061A4080238446029489
:103D1000069C079D2900DB00134304931F9B61440D
:103D2000220003930B00009201930DE605242AE67E
:103D30000023042402250D930A93FBE60423F5E5F2
:103D4000002D0FD002250524ECE68020069E079F5B
:103D5000000639008446614432000B00FDE61B1B5F
:103D60000D938AE71F9B0524053B0D93DAE69C1A09
:103D7000013C08E61F9B0424043B0D937DE7C046ED
:103D8000000024402D431CEBE2361A3F80842E4174
:103D9000FFF7FFFFF0B54E46DE4645465746E0B515
:103DA00095B08B46904699461E9A1F9B0A90190023
:103DB0001000209EFEF7A1FF002800D0A2E11E986F
:103DC0001F990122C64B5242FEF77CFF002800D00B
:103DD00006E11E981F990122C24B5242FEF788FF4E
:103DE000002800D0DCE01E981F990022BE4BFEF791
:103DF0007FFF002800D0BDE01E981F990022BB4B1A
:103E0000FEF760FF002800D0B4E01E981F99002242
:103E10000023FEF757FF002800D0D6E000230B93C5
:103E2000229B5B0500D406260024302307E01721DF
:103E300006AA013452181355013E202C01D0092E38
:103E4000F5D81E981F99FEF781FFA94BF2009B1829
:103E50001A685B68050008920993FEF75FFF02008D
:103E60000B001E981F99FEF7BAFE089A099BFEF7F1
:103E7000E6FE06900791FEF78DFF0700FEF74AFF6A
:103E800002000B0006980799FEF7A9FE0022994B45
:103E900006900791FEF72CFF002800D1C9E00137FA
:103EA0003800FEF737FF02000B0008980999FEF76B
:103EB0000FFF002801D000270135002E00D197E028
:103EC00006AA1723944663449A46069511E0534682
:103ED0000A21380001341D19FEF746FC30312970E3
:103EE00038000A21013EFEF73FFC092F00D8BDE053
:103EF0000700202CEBD1069D0CAB20249A4606AB84
:103F000017279C4667440EE028000A21FEF704FCB0
:103F100001343031E619280031700A21FEF7FCFB2C
:103F2000051E00D192E0202CEED10323229A1340EB
:103F3000012B18D1219B002B15D00B9B002B00D1FE
:103F4000AAE0219B013B2193202B0CD9302308E0D0
:103F5000172106AA521801341355219A944200D30E
:103F600079E0202CF4D1229B01940393219B0293AE
:103F700053461FE0229B42460493219B59460393DC
:103F80000A981E9B1F9C0296009301944B46FFF7D4
:103F900075FC15B0F0BCBB46B246A946A046F0BDC4
:103FA000229B5B070ED40322534B2299019203916B
:103FB00021990291009342464B4659460A98FFF7D1
:103FC00055FAE6E704224D4BEFE71E9A1F9B0020AF
:103FD0000021FEF704FE01231E901F910B931FE7A3
:103FE000229B0393219B029304230193444BE1E71B
:103FF0002800FEF793FE02000B001E981F99FEF7A3
:10400000EEFD3C4B002206000F00FEF75BFE0CAB02
:104010009A46002800D072E7002230003900354B64
:10402000FEF766FE002800D069E7012301359D43B5
:1040300065E70022069807992E4BFEF743FE0028FD
:1040400000D03AE7002F45D1013736E70323229A03
:104050001340012B63D0202C00D184E70B9B002B55
:1040600027D02D235246135501347CE7069D202C82
:1040700000D141E73023361905E05246013413558B
:10408000202C00D138E7B442F7D10CAB9A462E234E
:1040900052460134935532E70C23229A134239D009
:1040A000219B013B21939C4200D24FE7202C00D161
:1040B00059E7229B5B0704D52B2352461355013445
:1040C00051E7229B1B0700D44DE72023524613558E
:1040D000013448E7FB0700D4EFE60137EDE6C046C0
:1040E000FFFFEFFFFFFFEF7F65CDCD4165CDCDC178
:1040F000288700100000E03F147D00100C7D0010A8
:104100001C7D0010229B0393219B029303230193A8
:104110000A4B4FE7219B9C4200D217E723E7219BE4
:10412000002B98D00B9B002BB6D0219B013B2193F9
:104130009C4200D20AE7202C93D114E7187D00108E
:1041400010B5002800D110BD00F066FDFBE7C046A9
:104150000B0010B5002802D049681B68984710BDB5
:10416000F0B55746DE464E464546E0B597B01C00D2
:10417000209B17000B93CD4ACD4B83468A461A608D
:10418000002900D1C1E120780025002800D1C3E139
:10419000C84BB8469946C84B5F460D93D346CA46AE
:1041A00008E02A00434659466E1CB847350020787F
:1041B000002876D001342528F3D104239946023B08
:1041C00000269C462078611C0300203BDBB2102BAC
:1041D00003D852469B00D3589F460300303B092B1F
:1041E00038D9002399462A2800D19EE000230C9359
:1041F0002E2844D00200683AD2B2122A1CD80D9B55
:1042000092009A58974601230C001E43DAE7634652
:104210000C001E43D6E74B460C001E43D2E710238A
:104220000C001E43CEE708230C001E43CAE7802281
:1042300060785200164301310C00672845D82428C5
:10424000AFD90200253AD2B2422AAAD89B4992009D
:104250008A58974600231A0000E0013193009B180A
:104260005B001A1808780C000300303B303A092B29
:10427000F3D90023914601310C932E28BAD1802026
:10428000303B9C46C000064360780A008444634685
:10429000092B00D842E12A2800D159E10C00013154
:1042A000A8E7DA462C00BB464746AF4200D87D1E41
:1042B0003B002A0051460020D847200017B0F0BC30
:1042C000BB46B246A946A046F0BD0200693AD2B24A
:1042D0000F2A00D965E70121794B91409C460B409C
:1042E0000E936346194200D028E10A2A27D0072AF4
:1042F00000D056E721220B9B3243994605920822B3
:104300000C9B0492039310234A4602930E9B59463A
:10431000019308CA3800914600932A004346FFF7EC
:10432000E5F94B4605000B9341E70B9B04CB914607
:10433000002A57DB60780B930C00013156E70B9B8A
:104340000C9904CB94461093002900D10BE16346ED
:10435000187862466144002805D15FE25378013243
:10436000002B00D166E19142F8D16346CB1A0F933E
:1043700080223300D20013400B93164204D00F9AD0
:104380000C9B9A4200D90F93B60700D48FE1022309
:104390000E9363462A005D1B4B4611932300A946EA
:1043A0005C460C9D9B4600E032000B9B002B04D02A
:1043B0006B1E002D00D150E11D0043462100561C0C
:1043C000B8474B46985D0028EED1119B99465B4655
:1043D000A3461C000E9B002B00D08BE1109B3500E8
:1043E0000B93E4E6022216434A4652426078914615
:1043F0000C000B930131F9E660786C2800D11DE1C7
:10440000802252001643013116E780229200607824
:104410001643013110E76078682800D114E180224A
:104420000131164308E7672800D1A1E0472800D1F1
:10443000FAE0452800D1FAE00B9A07210732130071
:104440004A468B43190003920C9A049602920CC9B7
:104450003800009201930B912A0043465946FFF71A
:104460000DFA0500A3E6462800D17EE00B9A07214D
:10447000073213004A468B43190003920C9A0496A4
:1044800002920CC93800009201930B912A00434616
:104490005946FFF77FFC050089E62A004346594646
:1044A00025206E1CB847350081E6C04661410010EA
:1044B0007C1B00208C850010D08500101C8600100D
:1044C000419000006B1C0E930B9B04330C93B607BA
:1044D00000D4C9E00B9B2A00187859464346B847D8
:1044E0004B464D44012B00D85CE1A1465C460E9E34
:1044F00032004346013621002020B847B542F7D1AB
:10450000A3464C460C9B0B9351E6D44B20789B461C
:104510000025002800D03BE60024C6E600218B00E1
:104520005B185B0001321918107830390300303BFA
:10453000092BF4D90C911400511C5BE66F281BD099
:1045400000D850E11021782817D08E43063914E0A6
:104550000B9AA07808CA0234D943C9170B400C93B0
:104560000B92611C46E60139F1E6202216437DE7F5
:104570008022120116435FE70821720500D4CEE0C5
:104580000D229643320080201300800003409C4699
:10459000024200D008E10B9B1E1DD00500D52CE186
:1045A0000B9B500600D5F5E0100600D442E11888B8
:1045B0004B4604930C9B05920393002302910193B5
:1045C00000902A00434659463800FFF78FF80B96B3
:1045D0000500ECE558283CD002216228CDD07205B8
:1045E00000D4D3E0112296433200910500D59AE021
:1045F0000B9B1E1DD10500D5E6E00B9B510600D597
:10460000C1E0110600D404E10021595ECB17C8189F
:10461000584080B24B4604930C9BC90F03930A2366
:10462000059202930191CBE78022120116432022CA
:10463000164301E76346D31A0F9399E6C02292000E
:10464000A0781643E11CF7E5C022A0781643E11CD0
:10465000F2E52022102116438FE7119B16009946A0
:104660005B46A3461C00B5E64B46012B00D893E001
:104670006B1E4B444A462E00A9465D46A3461C00CD
:104680000E930F9232004346013629002020B8478E
:10469000B442F7D10F9B5C46AB464D4699460B9B07
:1046A000594618780E9A43464D44B8472AE70F9B5F
:1046B000994500D8D4E04B465E190F9BF61A634625
:1046C0000F9323005C469B462A0043460135210098
:1046D0002020B847AE42F7D10F9B9C465B46A346CD
:1046E0001C004B4601330F9363461878002800D016
:1046F0004FE673E635000F9B994500D8ACE04A467B
:10470000A1465C465619F61A2A0043460135210097
:104710002020B847AE42F7D1A3464C465EE60C22B5
:10472000964332002FE7082307209C460B99073158
:1047300081438C44634603C90B934B4607930C9B00
:10474000089206930A22002304920593CB0F02934A
:10475000CB1712931393129A139B1600464018001E
:1047600048401496159014981599801A99410200A2
:104770000B000092019359462A0043463800FFF788
:104780000FF8050013E51978080043E71022964357
:1047900032002AE718780BE70B9B2A001878594655
:1047A0004346B8470E9DADE64B4607930C9B072644
:1047B000069300230B9808920730B04304910593A9
:1047C00002930CC80B90D4E719684B4604930C9BDA
:1047D000059203930A230293CB0F0193CB17C918B9
:1047E00059400091EDE61022330093431A006928E6
:1047F00022D1710500D4F8E6F4E64B4604930C9BF5
:1048000005920393634601930B9B02911B680093EF
:10481000D7E61968CB17C8185840FBE6802233004A
:10482000D20013400F93164209D0B6071DD50023BE
:104830000F9360E71868BBE61E000A219DE602227E
:10484000130033400B93324200D054E700230F9300
:104850004B46002B00D02EE72E00BFE56934001038
:1048600001330F9300230E9393E50B92EEE7C046BE
:104870000CB430B585B008AC08CC064D0A000094E5
:10488000010028000394FFF76BFC05B030BC08BCA6
:1048900002B018476134001010B50C0084B00394C6
:1048A000012402A902900093034813006242FFF71B
:1048B00057FC04B010BDC0465141001010B5094A64
:1048C0000300146884B0002C08D00122009106482F
:1048D000524203A9A047012004B010BD00F0AAF97C
:1048E0000020F9E77C1B00204141001000BEFDE7DD
:1048F00010B5FFF7FBFFC04670B5FDF71FFE074D73
:10490000074EB54209D20024013E761BB60808CDF9
:10491000984723000134B342F9D170BDBC76001032
:10492000C8760010030010B5080011001B689847F6
:1049300010BDC046F8B557464E464546DE46E0B582
:10494000437D80460F001600002B48D00023002432
:104950009946002A2ADD244B9B464B1E9A4604E0CA
:104960007B5D0A2B28D0A64212D025000134002DF1
:10497000F6D13B780A2BF6D143461B7D002BF2D1B2
:104980004346022158461B68A1469847A642ECD1EF
:104990004E4505DD4B46F11AF81843461B6898470B
:1049A0007B5D0D3B5A42534142461375F0BCBB46FA
:1049B000B246A946A046F8BD53465B5D0D2BD2D04A
:1049C000A945DDDA4B46E91AF81843461B689847B3
:1049D0004346022158461B68A1469847D6E703681C
:1049E000110038009847E1E778870010F0B5C64617
:1049F0000B6806000C0000B5802B06D05A1C226004
:104A0000E418267180BCB846F0BD0F4B1D68002D20
:104A100016D00B1D98460D4F02E02D69002D0FD0CA
:104A20002B68002BF9D03B68002B01D0AB42F4D1AE
:104A3000280041462268FFF77DFF2D69002DEFD148
:104A400001220023DBE7C046701700207817002002
:104A5000F0B54546DE464E465746E0B585B0914630
:104A60001C0080460D00FDF775FA0023254A121838
:104A70004B41002B02DA0122234B5242234908000A
:104A80008A4602F0DDFD01906B1C03D1404602F026
:104A900009FC0500002C2FD01D4F1E4B1C68002C5C
:104AA0001FD00A231C4E9B4602E02469002C18D01C
:104AB0002368002BF9D03368002B01D0A342F4D136
:104AC0002A0041462000B8474B46002BEDD05A46FD
:104AD00002AB2000DA71D91D0122B8472469002CED
:104AE000E6D1019B002B09D1280005B0F0BCBB46E4
:104AF000B246A946A046F0BD084FCEE7504602F0A8
:104B00006FFDF1E740420F00FFFFFF7F380C0020F0
:104B10003549001070170020781700202549001033
:104B2000F8B557464E464546DE4698461A4BE0B520
:104B30009B461A4B07000E0091469A46184D5B465D
:104B40001C68002C03D115E02469002C12D02B68BE
:104B5000002B01D0A342F7D1A368002BF4D0310081
:104B6000380098470028EFDDF0BCBB46B246A946A6
:104B7000A046F8BD53465B6A984508D85246926AEB
:104B80004A4502D302204042EEE79845FAD101207F
:104B90000021FDF7E9F9D2E7701700200040054039
:104BA000781700200A4A1368002B05D10CE01A0080
:104BB0001B691032002B07D08342F8D1002902D1A3
:104BC00018691060196170470029FCD01060FAE77D
:104BD0007017002010B500F0CDFA10BD10B504001C
:104BE00082B0FDF7B7F92200002312184B41002BC9
:104BF00002DA0122074B5242012101A8FFF790FF80
:104C0000002803DB6B46187902B010BD0220404239
:104C1000FAE7C046FFFFFF7F10B582B06B46040085
:104C20000022D81D012101230470FFF711FF20008D
:104C300002B010BD70B5040002F034FB0123010086
:104C4000050001222000FFF703FF064B1C68002C23
:104C500006D06368002B00D098472469002CF8D157
:104C6000280070BD70170020F0B5CE46474680B5CD
:104C7000A3B004000D00FDF76DF90023264A1218B9
:104C80004B41002B02DA0122244B5242244E3000C9
:104C900002F0D6FC00232200019307002B002148DC
:104CA00001A9FFF7F9FD204B804699461C68019B3E
:104CB000002B1AD0002C2DD01C4D02E02469002CB2
:104CC0000FD02368002BF9D02B68002B01D09C4219
:104CD000F4D12000019A02A9FFF72CFE2469002CD0
:104CE000EFD14B461C6800230193002C06D063686B
:104CF000002B00D098472469002CF8D1002F05D153
:104D0000404623B0C0BCB946B046F0BD300002F00A
:104D100067FCF5E70194F1E740420F00FFFFFF7FDA
:104D2000380C0020ED490010701700207817002083
:104D30000FB400B583B004A901C90191FFF794FF36
:104D400003B008BC04B018477047C0460022014BAE
:104D50001A707047D21C00204B790020FF2B0BD11A
:104D60008B79002B08D1CB79012B05D1082A03D9E7
:104D7000024B8A7809301A707047C046D21C002056
:104D80000120704710B5012913D1124953791079C8
:104D900009781B0203430020994200D010BD5378CC
:104DA000012B08D0022BF9D1642200210020FDF74D
:104DB0000FFB0120F2E7D37891781B021943480AD0
:104DC000DB0501D4012040427F238A05D20F194020
:104DD000FDF786FBD21C0020004870474488001075
:104DE00070B5050014000120012909D15378002075
:104DF000012B05D1637912791B021343072B00D0D5
:104E000070BD21002800024A9F3301F057F9F7E7EF
:104E10009C87001001230370004870477C870010B6
:104E20004B780A781B0213438A7810B512041A4390
:104E3000CB781B0613439622D200934200D010BDBC
:104E40000022012011004042FDF74AFB024B18608E
:104E5000024B19607047C04610170020141700203D
:104E600010B5024B1878FCF7C7FA10BDD31C002010
:104E7000154B70B51A68002A22D0EFF3108172B674
:104E800010680028FCD0BFF35F8F00200F4A5960E4
:104E900010701B68BFF35F8F186081F310880024C7
:104EA00000250B4E3078FCF79BFA002804D1002433
:104EB00000252900200070BD3078FCF79DFAF8E746
:104EC000FA240025A400ECE7881B0020D41C002055
:104ED000D31C002070B5040000200E0001F0CEF9B4
:104EE000002834D0002001F0DFF900282FD0FDF792
:104EF00031F80023174A12184B41002B16DB164DD0
:104F0000280002F09DFB002821D0002001F0B6F916
:104F100000280FD101200021404200F09BFC032417
:104F20006442280002F05CFB200070BD01220B4BA4
:104F30005242E4E7002001F0B7F90028EAD021004E
:104F40003200002001F0BAF9041EEAD1E7E7032499
:104F50006442E9E740420F00B01C0020FFFFFF7FE2
:104F600010B5FCF7F7FF00230D4A12184B41002B38
:104F700002DA01220B4B52420B4C200002F060FB84
:104F800000280CD001200021404200F063FC0020EA
:104F900001F0ACF90028F5D1200002F021FB10BD92
:104FA00040420F00FFFFFF7FB01C0020F8B5DE4637
:104FB000574680B505000C00FCF7CCFF0023364AAD
:104FC00012184B41002B02DA0122344B5242344971
:104FD00008008A4602F034FB002803D1C0BCBB465F
:104FE000B246F8BD002001F049F900284AD0002659
:104FF000002C43DD2B4B9B4614E0A919002001F047
:10500000AFF9070001200021404200F023FC0020FE
:1050100001F06CF9FCF79EFF224BF61918605960FD
:10502000B4422BDD002001F0BBF9A71B0200B842FF
:1050300000DD3A00002AE0D101200021404200F0CA
:1050400009FC002001F052F9002001F017F90028B6
:1050500014D0002001F0A4F90028E1D1FCF77AFF78
:105060005B460F001A685B68002184460E481218E0
:105070004B419F4202D8D3D19445D1D9504602F03A
:10508000AFFAABE700200021064B1860596050468C
:1050900002F0A6FAA2E7C04640420F00FFFFFF7FE2
:1050A000B01C0020C00D002020A1070030B52A4C04
:1050B00085B00021200002F0B3FA00281CD1274B54
:1050C0001A68002A16D0EFF3108172B61068002813
:1050D000FCD0BFF35F8F01242148596002781B6820
:1050E000D2B20470BFF35F8F0020186081F3108884
:1050F000002A17D005B030BD01200021404200F049
:10510000A9FB002001F0D0F80500200002F068FAA9
:10511000002DEFD0134B1B68002BEBD0124A106808
:105120009847E7E7FCF746FD0400FCF713FFFA2277
:105130000023920012184B41002B02DA01220B4B84
:105140005242012102910021019109492000009160
:10515000FCF78CFDCEE7C046B01C0020881B002069
:10516000D41C00201017002014170020FFFFFF7F21
:10517000714E0010D02310B51B0684B01C68FCF7DC
:1051800019FDFCF7CBFDA04202D0002004B010BDF9
:10519000294B002100201B7801F0F6FB274803680B
:1051A000002B45D00120FCF7B7FAFF23244C2549FA
:1051B00020701840FCF73AF920780121FCF7FEF83E
:1051C0000520FCF721F9002824D1082200211E48DF
:1051D000FEF73AF9FCF7EEFC0400FCF7BBFEFA22FE
:1051E0000023920012184B41002B02DA0122174BC8
:1051F00052420121029100210191154920000091A4
:10520000FCF734FD0028C0DB12480121FFF7CAFC7F
:105210000120BBE70120FCF79FF80B4B01001800B1
:10522000FCF7DCFA002205200B49FCF729F9EBE733
:10523000FCF7B8FAB6E7C046FC8A0010B01C0020A4
:10524000D31C0020AD500010881B0020FFFFFF7F03
:10525000714E0010000C0020614E00100048704795
:10526000E0880010004870478C88001010B50400DA
:1052700017480378002B20D0002C06D1154B164878
:105280004380063BFF3B038010BD052C1DD8134B0C
:10529000A400E05812490123013804E001330A80D8
:1052A0000231142B0DD0C25C002AF7D1C022DBB230
:1052B0005B00920008481343E5E7112100F01AF85B
:1052C000DAE7CA2304489B00DDE70020DCE7C0469C
:1052D000BC1C00200904000048170020748800103E
:1052E0004A17002010B5024800F02CF810BDC04647
:1052F000A01B0020F0B54E1E01291BD0104B002230
:105300009C4601270F2461465308CB5C390091432A
:1053100089000B4125001D4029002B003731092D44
:1053200001DC3033190081540132B24205D0102A19
:10533000E9D1103000230370F0BD8018FAE7C046B1
:10534000A01B002010B588B004000D220021684683
:10535000FEF77AF80D22002104A8FEF775F84B231A
:105360006A466846137004A90D2202F031F915212E
:10537000082220006944FEF76DF808B010BDC04651
:1053800070B57F240440C50963001A4E5B195B01A8
:10539000F318987001206840587000201983D87065
:1053A000DA76E300012D15D0134A9446A201634436
:1053B000B21893601860002C06D100236D01751996
:1053C0006B600E4BEB6070BD0D4BE4009C4664447B
:1053D0005460F8E70B4A9446A2016344B218936202
:1053E0001860002CE9D0084BE4009C4664445462E9
:1053F000E9E7C0467C1700208400105000011050DF
:10540000040010508000105000001050F8B500F05B
:1054100009F90C23194DFF22AB6705201849FCF749
:105420002FF8184C402200212000FEF70DF84027ED
:10543000002301262121144A66702783A26013608D
:1054400063545F31618445396354104A1049636085
:10545000E2602787A1620B606362E26202F0D0F82B
:1054600080239B052E64EB6490230A4A0120EA50B6
:105470008022094B5202DA64F8BDC0460000115088
:10548000DD0400207C170020840010500001105023
:105490008000105010D001000020115010B50121E3
:1054A0000520FBF78BFF10BD10B50022002102483C
:1054B00000F0D8F810BDC0469C170020044B1970AE
:1054C000002904D080219023024A8902D1507047DC
:1054D000CE1C0020002011500B785B0602D14B78C7
:1054E000052B00D070478A78014B1A60FAE7C04656
:1054F00000001150CA78F8B59207920F012A35D0F2
:105500007F248D780B7949792800090219434905D0
:10551000490D2C40FFF734FF002C01D10120F8BDCC
:105520003F21ED096400154E62195201B218138B28
:10553000D27E3F338B43022A1AD0114967190A6879
:105540007F01D3180B600F49F719FA608B4211D80D
:10555000641964013619F37E0B499B064A401343D4
:1055600080221206134372681360D7E70020D6E743
:105570005B00E2E7FCF7DCFFFA68E9E77C17002054
:10558000841B0020FF0F10500000105010B502F0D7
:1055900037F810BD10B57F200C0020404000E40912
:1055A000110000191A00034B4001C01800F05AF80E
:1055B000012010BD7C1700207F23180000B5084093
:1055C00083B00B4204D14B424B41084A01339366EE
:1055D0008022C9094000064B401840010021C01834
:1055E000120102F045F803B000BDC0460020115082
:1055F0007C1700207F22130010B50B400A4200D117
:1056000010BDC9095B005B1804485B01C01800238A
:1056100000220349C37002F02BF8F1E77C17002049
:10562000FFF7FFFF80220A4B520410B51A60094BA6
:1056300009491A6010000B689843FBD180220021B1
:1056400052010648FDF700FF0922054B5A6710BDBD
:1056500000E0004000F0004008C000400000105092
:1056600000001150002310B5C3820133828283767B
:105670000161040001F0A4FF002804D080219023E0
:10568000074A8902D150200001F0EAFF002802D029
:105690000123237710BD200001F0DAFFFAE7C046AE
:1056A00000201150F0B5C64600B5194E1949050045
:1056B0000024002388463278174F0EE03B686201D1
:1056C0009B18002B20D0DB682800984732780134E3
:1056D000E4B2511C2300A14205DBA242EED89B1A82
:1056E0005B014344EFE70D4C542200212000FDF7FD
:1056F000ABFE1022FF21201DFDF7A6FE2000202278
:10570000FF211430FDF7A0FE80BCB846F0BDC046B6
:10571000CD1C00209C890010781000202812002049
:105720007047C0467047C046002070470020704751
:105730007047C0467047C0467047C0467047C04675
:10574000024B5878431E9841C0B27047281200207F
:10575000024B18784007C00F7047C046281200203F
:10576000F0B5D6464F464646C0B52F4B07009A4681
:105770001B780E00FF2B50D1002941D0002154226C
:105780002A48FDF761FE0022294C2A4B20001A709E
:10579000FCF708F8284B1C60284C2000143CFCF750
:1057A0000FF8200001F000FD254B264D1C60264B14
:1057B000002B04D02800FFF72DFB244B1860244950
:1057C000002489462149002388462A7810E0434670
:1057D0001B6862019B18002B12D05B68002B0FD056
:1057E00098472A780134E4B2511C2300A14209DB16
:1057F000A242ECD89B1A5B014B445B68002BEFD1B3
:1058000000200BE05346310038001F70FFF7FEFD0B
:105810000028F5D03800FFF741FE0120E0BCBA4671
:10582000B146A846F0BDC046340C00202812002026
:1058300020120020CF1C00207C1200202C0C002005
:1058400080120020CD1C0020154E00107810002082
:105850009C890010F0B5DE4657464E464546E0B5F9
:10586000AE4B91B002931B78FF2B00D1C5E0AC4B3F
:10587000AC4E9B46AC4D0DAC01962F687A69EFF3A8
:10588000108172B61368002BFCD0BFF35F8FB96133
:105890003800210001F026FB7A69BB69BFF35F8FF6
:1058A0000021116083F31088002800D1A5E06378FF
:1058B000082BE2D8019A9B00D3589F466368002BBF
:1058C000DBD0A0689847D8E77F222179944B0A4023
:1058D0005700C809DB191B1818000126303007795A
:1058E000B743077107790336B7430771002A00D120
:1058F0008AE08E4A1B7D127893427BD28C4A5B01F0
:105900001768FF18002F78D0A36862792078BF69E4
:10591000B847B2E7874A1378002B6ED01378013B63
:10592000DBB213701378002BA7D101227C4F01202A
:105930003B78042113433B703423FA5C8243FA54CE
:10594000FA5C8A43FA540133FA5C8243FA54FA5CF3
:1059500000208A43FA5423789A4600F0EFFB602235
:1059600023791A40602A00D175E0402A00D17BE0FB
:10597000DB06DB0E012B00D182E0022B4FD0002B87
:1059800069D1202A00D19DE1002A64D16379092BD5
:1059900061D8694A9B00D3589F465B461B78DB075A
:1059A00000D46AE7FFF7CAFE67E75B46DB78DB07F0
:1059B00000D462E76068FFF7B5FE5EE7584A1378E7
:1059C000DB0700D459E710780007C00FFFF7B4FEDB
:1059D00053E72078FFF766FE00F0A6FB504B2279D4
:1059E0009A704AE72078FFF75DFE00F09DFBFFF715
:1059F000A1FE42E7501C98420CDA11B0F0BCBB4645
:105A0000B246A946A046F0BDA3686279207800F0AE
:105A1000A9FB32E7494F9B1A5B01DF1974E770233A
:105A2000217A0B4217D1C80981460F330B405B0026
:105A30003E480393FB184B441B7D007883424FD2B2
:105A40003B485B01006880469844002A00D158E139
:105A50004346002B50D120780021FFF7ADFD802177
:105A60002078FFF7A9FD08E7354800F067FB012122
:105A700050460EAAFFF7B4F9002800D0FDE6EAE789
:105A8000237A0F2BE7D8294AFB181B791778BB42DA
:105A90003DD3791C9942DEDBDF1B284B7F01FF18C9
:105AA000786900F04BFB012150467B690EAA9847AC
:105AB000002800D0E1E66022170023791F401A4237
:105AC000C9D163790A3B012BC5D800F037FB637954
:105AD0000A2B00D17CE150460EA900F0D9FACCE6A1
